{"abi":[{"type":"constructor","inputs":[{"name":"denominator","type":"address","internalType":"address"}],"stateMutability":"nonpayable"},{"type":"function","name":"GHO","inputs":[],"outputs":[{"name":"","type":"address","internalType":"contract IGhoToken"}],"stateMutability":"view"},{"type":"function","name":"calculateTakePrice","inputs":[{"name":"P","type":"tuple","internalType":"struct Position","components":[{"name":"asset","type":"address","internalType":"address"},{"name":"state","type":"uint8","internalType":"enum State"},{"name":"expriresAt","type":"uint256","internalType":"uint256"},{"name":"amount","type":"uint256","internalType":"uint256"},{"name":"wantedPrice","type":"uint256","internalType":"uint256"},{"name":"durationBalance","type":"uint256[2]","internalType":"uint256[2]"},{"name":"taker","type":"address","internalType":"address"},{"name":"lper","type":"address","internalType":"address"},{"name":"executionPrice","type":"uint256","internalType":"uint256"},{"name":"LPsig","type":"bytes","internalType":"bytes"}]}],"outputs":[{"name":"cost","type":"uint256","internalType":"uint256"},{"name":"executionPrice","type":"uint256","internalType":"uint256"}],"stateMutability":"view"},{"type":"function","name":"genesis","inputs":[],"outputs":[{"name":"","type":"address","internalType":"address"}],"stateMutability":"view"},{"type":"function","name":"getATokenAddressFor","inputs":[{"name":"assetAddress","type":"address","internalType":"address"}],"outputs":[{"name":"aToken","type":"address","internalType":"address"}],"stateMutability":"view"},{"type":"function","name":"getAllAaveAssetPrices","inputs":[],"outputs":[{"name":"assets","type":"address[]","internalType":"address[]"},{"name":"prices","type":"uint256[]","internalType":"uint256[]"}],"stateMutability":"view"},{"type":"function","name":"getAllAssetsPrices","inputs":[],"outputs":[{"name":"assets","type":"address[]","internalType":"address[]"},{"name":"prices","type":"uint256[]","internalType":"uint256[]"}],"stateMutability":"view"},{"type":"function","name":"getEthSignedMessageHash","inputs":[{"name":"_messageHash","type":"bytes32","internalType":"bytes32"}],"outputs":[{"name":"","type":"bytes32","internalType":"bytes32"}],"stateMutability":"pure"},{"type":"function","name":"getPosition","inputs":[{"name":"hashOf","type":"bytes32","internalType":"bytes32"}],"outputs":[{"name":"","type":"tuple","internalType":"struct Position","components":[{"name":"asset","type":"address","internalType":"address"},{"name":"state","type":"uint8","internalType":"enum State"},{"name":"expriresAt","type":"uint256","internalType":"uint256"},{"name":"amount","type":"uint256","internalType":"uint256"},{"name":"wantedPrice","type":"uint256","internalType":"uint256"},{"name":"durationBalance","type":"uint256[2]","internalType":"uint256[2]"},{"name":"taker","type":"address","internalType":"address"},{"name":"lper","type":"address","internalType":"address"},{"name":"executionPrice","type":"uint256","internalType":"uint256"},{"name":"LPsig","type":"bytes","internalType":"bytes"}]}],"stateMutability":"view"},{"type":"function","name":"getPriceOfAaveAsset","inputs":[{"name":"aTokenAddress","type":"address","internalType":"address"}],"outputs":[{"name":"","type":"uint256","internalType":"uint256"}],"stateMutability":"view"},{"type":"function","name":"getPriceOfAsset","inputs":[{"name":"Asset","type":"address","internalType":"address"}],"outputs":[{"name":"","type":"uint256","internalType":"uint256"}],"stateMutability":"view"},{"type":"function","name":"liquidatePosition","inputs":[{"name":"positionHash","type":"bytes32","internalType":"bytes32"}],"outputs":[],"stateMutability":"nonpayable"},{"type":"function","name":"profitTake","inputs":[{"name":"Aasset_","type":"address","internalType":"address"}],"outputs":[],"stateMutability":"nonpayable"},{"type":"function","name":"recoverSigner","inputs":[{"name":"_ethSignedMessageHash","type":"bytes32","internalType":"bytes32"},{"name":"_signature","type":"bytes","internalType":"bytes"}],"outputs":[{"name":"","type":"address","internalType":"address"}],"stateMutability":"pure"},{"type":"function","name":"splitSignature","inputs":[{"name":"sig","type":"bytes","internalType":"bytes"}],"outputs":[{"name":"r","type":"bytes32","internalType":"bytes32"},{"name":"s","type":"bytes32","internalType":"bytes32"},{"name":"v","type":"uint8","internalType":"uint8"}],"stateMutability":"pure"},{"type":"function","name":"takePosition","inputs":[{"name":"P","type":"tuple","internalType":"struct Position","components":[{"name":"asset","type":"address","internalType":"address"},{"name":"state","type":"uint8","internalType":"enum State"},{"name":"expriresAt","type":"uint256","internalType":"uint256"},{"name":"amount","type":"uint256","internalType":"uint256"},{"name":"wantedPrice","type":"uint256","internalType":"uint256"},{"name":"durationBalance","type":"uint256[2]","internalType":"uint256[2]"},{"name":"taker","type":"address","internalType":"address"},{"name":"lper","type":"address","internalType":"address"},{"name":"executionPrice","type":"uint256","internalType":"uint256"},{"name":"LPsig","type":"bytes","internalType":"bytes"}]}],"outputs":[{"name":"","type":"bytes32","internalType":"bytes32"}],"stateMutability":"nonpayable"},{"type":"function","name":"updateBucketCapacity","inputs":[],"outputs":[],"stateMutability":"nonpayable"},{"type":"function","name":"verifyLPsig","inputs":[{"name":"P","type":"tuple","internalType":"struct Position","components":[{"name":"asset","type":"address","internalType":"address"},{"name":"state","type":"uint8","internalType":"enum State"},{"name":"expriresAt","type":"uint256","internalType":"uint256"},{"name":"amount","type":"uint256","internalType":"uint256"},{"name":"wantedPrice","type":"uint256","internalType":"uint256"},{"name":"durationBalance","type":"uint256[2]","internalType":"uint256[2]"},{"name":"taker","type":"address","internalType":"address"},{"name":"lper","type":"address","internalType":"address"},{"name":"executionPrice","type":"uint256","internalType":"uint256"},{"name":"LPsig","type":"bytes","internalType":"bytes"}]}],"outputs":[{"name":"s","type":"bool","internalType":"bool"}],"stateMutability":"pure"},{"type":"event","name":"NewPosition","inputs":[{"name":"positionHash","type":"bytes32","indexed":false,"internalType":"bytes32"}],"anonymous":false},{"type":"event","name":"PositionLiquid","inputs":[{"name":"positionHash","type":"bytes32","indexed":false,"internalType":"bytes32"}],"anonymous":false},{"type":"error","name":"AZero","inputs":[]},{"type":"error","name":"AaveRug","inputs":[]},{"type":"error","name":"AlreadyTaken","inputs":[]},{"type":"error","name":"BadSigP","inputs":[]},{"type":"error","name":"Illegal","inputs":[]},{"type":"error","name":"InsufficientDuration","inputs":[]},{"type":"error","name":"InvalidExecutionPrice","inputs":[]},{"type":"error","name":"MinOneDay","inputs":[]},{"type":"error","name":"NotADex","inputs":[]},{"type":"error","name":"NotTaker","inputs":[]},{"type":"error","name":"OnlyTakerOrExpired","inputs":[]},{"type":"error","name":"ResidualPermit","inputs":[]},{"type":"error","name":"TransferFaileure","inputs":[]},{"type":"error","name":"Untaken","inputs":[]},{"type":"error","name":"ValueSensitivity","inputs":[]}],"bytecode":{"object":"0x6080604052600180546001600160a01b0319167354586be62e3c3580375ae3723c145253060ca0c21790553480156200003757600080fd5b50604051620031c6380380620031c68339810160408190526200005a9162000334565b600080546001600160a01b0383166001600160a01b0319918216179091556002805490911633179055806200008e62000096565b5050620005d5565b3060009081526003602052604090205460ff1615620000b457600080fd5b600080620000c162000182565b9150915060005b81518110156200016357630b2f60b1828281518110620000ec57620000ec62000359565b602002602001015111156200014e5760006200012a84838151811062000116576200011662000359565b60200260200101516200028c60201b60201c565b6001600160a01b03166000908152600360205260409020805460ff19166001179055505b806200015a816200036f565b915050620000c8565b5050306000908152600360205260409020805460ff1916600117905550565b6060807387870bca3f3fd6335c3f4ce8392d69350b4fa4e26001600160a01b031663d1946dbc6040518163ffffffff1660e01b8152600401600060405180830381865afa158015620001d8573d6000803e3d6000fd5b505050506040513d6000823e601f3d908101601f1916820160405262000202919081019062000406565b604051634e91ecf960e11b81529092507354586be62e3c3580375ae3723c145253060ca0c290639d23d9f2906200023e908590600401620004ae565b600060405180830381865afa1580156200025c573d6000803e3d6000fd5b505050506040513d6000823e601f3d908101601f19168201604052620002869190810190620004fd565b90509091565b6040516334924edb60e21b81526001600160a01b0382166004820152600090737b4eb56e7cd4b454ba8ff71e4518426369a138a39063d2493b6c90602401606060405180830381865afa158015620002e8573d6000803e3d6000fd5b505050506040513d601f19601f820116820180604052508101906200030e91906200058b565b50909392505050565b80516001600160a01b03811681146200032f57600080fd5b919050565b6000602082840312156200034757600080fd5b620003528262000317565b9392505050565b634e487b7160e01b600052603260045260246000fd5b6000600182016200039057634e487b7160e01b600052601160045260246000fd5b5060010190565b634e487b7160e01b600052604160045260246000fd5b604051601f8201601f191681016001600160401b0381118282101715620003d857620003d862000397565b604052919050565b60006001600160401b03821115620003fc57620003fc62000397565b5060051b60200190565b600060208083850312156200041a57600080fd5b82516001600160401b038111156200043157600080fd5b8301601f810185136200044357600080fd5b80516200045a6200045482620003e0565b620003ad565b81815260059190911b820183019083810190878311156200047a57600080fd5b928401925b82841015620004a357620004938462000317565b825292840192908401906200047f565b979650505050505050565b6020808252825182820181905260009190848201906040850190845b81811015620004f15783516001600160a01b031683529284019291840191600101620004ca565b50909695505050505050565b600060208083850312156200051157600080fd5b82516001600160401b038111156200052857600080fd5b8301601f810185136200053a57600080fd5b80516200054b6200045482620003e0565b81815260059190911b820183019083810190878311156200056b57600080fd5b928401925b82841015620004a35783518252928401929084019062000570565b600080600060608486031215620005a157600080fd5b620005ac8462000317565b9250620005bc6020850162000317565b9150620005cc6040850162000317565b90509250925092565b612be180620005e56000396000f3fe608060405234801561001057600080fd5b506004361061010b5760003560e01c8063a935310f116100a2578063e64a8fc811610071578063e64a8fc814610239578063ea2b5b431461025c578063eaf7762c1461026f578063edf51fdd14610282578063fa540801146102aa57600080fd5b8063a935310f14610201578063b8d008f314610209578063c4e8e0de1461021c578063d286cc521461022657600080fd5b806378f34416116100de57806378f344161461019457806397aba7f9146101aa578063a7bb5803146101bd578063a7f0b3de146101ee57600080fd5b80630b13a88d146101105780630f0a4ab11461013657806315f14824146101495780631928b3cb14610174575b600080fd5b61012361011e36600461226c565b6102bd565b6040519081526020015b60405180910390f35b61012361014436600461226c565b610332565b61015c61015736600461226c565b6103a8565b6040516001600160a01b03909116815260200161012d565b610187610182366004612290565b610430565b60405161012d9190612350565b61019c6105c1565b60405161012d92919061245a565b61015c6101b8366004612592565b610640565b6101d06101cb3660046125d9565b6106bf565b60408051938452602084019290925260ff169082015260600161012d565b60025461015c906001600160a01b031681565b61019c610737565b60005461015c906001600160a01b031681565b610224610839565b005b61012361023436600461268d565b610a34565b61024c61024736600461268d565b61113c565b604051901515815260200161012d565b61022461026a36600461226c565b6111dc565b61022461027d366004612290565b6114e5565b61029561029036600461268d565b612048565b6040805192835260208301919091520161012d565b6101236102b8366004612290565b6120da565b60015460405163b3596f0760e01b81526001600160a01b038381166004830152600092169063b3596f0790602401602060405180830381865afa158015610308573d6000803e3d6000fd5b505050506040513d601f19601f8201168201806040525081019061032c919061277e565b92915050565b60006305f5e10061039e836001600160a01b031663b16a19de6040518163ffffffff1660e01b8152600401602060405180830381865afa15801561037a573d6000803e3d6000fd5b505050506040513d601f19601f8201168201806040525081019061011e9190612797565b61032c91906127ca565b6040516334924edb60e21b81526001600160a01b0382166004820152600090737b4eb56e7cd4b454ba8ff71e4518426369a138a39063d2493b6c90602401606060405180830381865afa158015610403573d6000803e3d6000fd5b505050506040513d601f19601f8201168201806040525081019061042791906127ec565b50909392505050565b61043861212d565b6000828152600560209081526040918290208251610140810190935280546001600160a01b03811684529091830190600160a01b900460ff166004811115610482576104826122a9565b6004811115610493576104936122a9565b8152602001600182015481526020016002820154815260200160038201548152602001600482016002806020026040519081016040528092919082600280156104f1576020028201915b8154815260200190600101908083116104dd575b505050918352505060068201546001600160a01b03908116602083015260078301541660408201526008820154606082015260098201805460809092019161053890612839565b80601f016020809104026020016040519081016040528092919081815260200182805461056490612839565b80156105b15780601f10610586576101008083540402835291602001916105b1565b820191906000526020600020905b81548152906001019060200180831161059457829003601f168201915b5050505050815250509050919050565b6060806105cc610737565b909250905060005b825181101561063b576105ff8382815181106105f2576105f2612873565b60200260200101516103a8565b83828151811061061157610611612873565b6001600160a01b03909216602092830291909101909101528061063381612889565b9150506105d4565b509091565b60008060008061064f856106bf565b6040805160008152602081018083528b905260ff8316918101919091526060810184905260808101839052929550909350915060019060a0016020604051602081039080840390855afa1580156106aa573d6000803e3d6000fd5b5050604051601f190151979650505050505050565b600080600083516041146107195760405162461bcd60e51b815260206004820152601860248201527f696e76616c6964207369676e6174757265206c656e6774680000000000000000604482015260640160405180910390fd5b50505060208101516040820151606090920151909260009190911a90565b6060807387870bca3f3fd6335c3f4ce8392d69350b4fa4e26001600160a01b031663d1946dbc6040518163ffffffff1660e01b8152600401600060405180830381865afa15801561078c573d6000803e3d6000fd5b505050506040513d6000823e601f3d908101601f191682016040526107b491908101906128c6565b604051634e91ecf960e11b81529092507354586be62e3c3580375ae3723c145253060ca0c290639d23d9f2906107ee908590600401612965565b600060405180830381865afa15801561080b573d6000803e3d6000fd5b505050506040513d6000823e601f3d908101601f191682016040526108339190810190612978565b90509091565b600080610844610737565b90925090506000805b83518110156109c25761086b8482815181106105f2576105f2612873565b84828151811061087d5761087d612873565b60200260200101906001600160a01b031690816001600160a01b031681525050600360008583815181106108b3576108b3612873565b6020908102919091018101516001600160a01b031682528101919091526040016000205460ff16156109b05760008482815181106108f3576108f3612873565b60209081029190910101516040516370a0823160e01b81523060048201526001600160a01b03909116906370a0823190602401602060405180830381865afa158015610943573d6000803e3d6000fd5b505050506040513d601f19601f82011682018060405250810190610967919061277e565b90506000816305f5e10086858151811061098357610983612873565b602002602001015161099591906127ca565b61099f91906129fe565b90506109ab8185612a15565b935050505b806109ba81612889565b91505061084d565b5060005460405163af93df5760e01b81523060048201526001600160801b03831660248201526001600160a01b039091169063af93df5790604401600060405180830381600087803b158015610a1757600080fd5b505af1158015610a2b573d6000803e3d6000fd5b50505050505050565b80516001600160a01b031660009081526003602052604081205460ff16610a6e5760405163c9c4bbdf60e01b815260040160405180910390fd5b600182602001516004811115610a8657610a866122a9565b60ff1611610aa75760405163239aa90f60e11b815260040160405180910390fd5b81606001518260800151836101000151610ac191906129fe565b610acb91906129fe565b600003610aeb576040516301cf70f360e41b815260040160405180910390fd5b816080015182610100015110610b14576040516311d4fd3f60e21b815260040160405180910390fd5b600080610b2084612048565b9092509050610b37670de0b6b3a7640000826127ca565b84610100015114610b5b576040516304ac495360e21b815260040160405180910390fd5b6000610b6a4262015180612a3c565b85604001511015610b7c576000610b8c565b428560400151610b8c9190612a4f565b905080600003610baf5760405163da7518ef60e01b815260040160405180910390fd5b60a085015151811115610bd5576040516363c0bec760e01b815260040160405180910390fd5b60c08501516001600160a01b03163314610c0257604051635211a07960e01b815260040160405180910390fd5b3360c08601526060850151600090610c2290670de0b6b3a76400006129fe565b905082866060015185610c3591906127ca565b1115610c545760405163439166d960e11b815260040160405180910390fd5b6000546001600160a01b03166323b872dd336040516001600160e01b031960e084901b1681526001600160a01b039091166004820152306024820152604481018790526064016020604051808303816000875af1158015610cb9573d6000803e3d6000fd5b505050506040513d601f19601f82011682018060405250810190610cdd9190612a62565b8015610d645750855160e08701516040516323b872dd60e01b81526001600160a01b039182166004820152306024820152604481018490529116906323b872dd906064016020604051808303816000875af1158015610d40573d6000803e3d6000fd5b505050506040513d601f19601f82011682018060405250810190610d649190612a62565b610d8157604051634ebafae360e11b815260040160405180910390fd5b85516001600160a01b031660009081526004602052604081208054839290610daa908490612a3c565b909155506003905086602001516004811115610dc857610dc86122a9565b03610f3d57600080546040516370a0823160e01b81523060048201526001600160a01b03909116906370a0823190602401602060405180830381865afa158015610e16573d6000803e3d6000fd5b505050506040513d601f19601f82011682018060405250810190610e3a919061277e565b60005460608901519192506001600160a01b0316906340c10f19903090610e6190886129fe565b6040518363ffffffff1660e01b8152600401610e7e929190612a84565b600060405180830381600087803b158015610e9857600080fd5b505af1158015610eac573d6000803e3d6000fd5b50506000546040516370a0823160e01b81523060048201526001600160a01b0390911692506370a082319150602401602060405180830381865afa158015610ef8573d6000803e3d6000fd5b505050506040513d601f19601f82011682018060405250810190610f1c919061277e565b8110610f3b5760405163dd27098360e01b815260040160405180910390fd5b505b60a08601516020015115610f645760a086015160200151610f5f908390612a4f565b610f75565b60a086015151610f75908390612a4f565b60a0870151602090810191909152604051600091610f9591899101612350565b6040516020818303038152906040528051906020012090506001600560008381526020019081526020016000206008015410610fe457604051630c0e5cf760e21b815260040160405180910390fd5b6000818152600560209081526040909120885181546001600160a01b031981166001600160a01b039092169182178355928a01518a93909183916001600160a81b03191617600160a01b836004811115611040576110406122a9565b021790555060408201518160010155606082015181600201556080820151816003015560a08201518160040190600261107a929190612199565b5060c08201516006820180546001600160a01b039283166001600160a01b03199182161790915560e0840151600784018054919093169116179055610100820151600882015561012082015160098201906110d59082612aeb565b509050506110e28761113c565b6110ff57604051630776f20b60e51b815260040160405180910390fd5b6040518181527fb5d1e17d6ac79bd35ea3fc367695ca5d7d85fa261d65aeeeac772010da685e5c9060200160405180910390a19695505050505050565b610120810180516000610100840181905260408401819052606090925260c083018290526001602084018190525060a08301516000602091820181905260405190916111a99161118e91879101612350565b604051602081830303815290604052805190602001206120da565b905060006111b78284610640565b90508460e001516001600160a01b0316816001600160a01b0316149350505050919050565b6040516370a0823160e01b81523060048201526000906065906001600160a01b038416906370a0823190602401602060405180830381865afa158015611226573d6000803e3d6000fd5b505050506040513d601f19601f8201168201806040525081019061124a919061277e565b61125491906127ca565b6002546001600160a01b038085166000818152600460205260409020549394509263a9059cbb929091169061128a8560456129fe565b6112949190612a4f565b6040518363ffffffff1660e01b81526004016112b1929190612a84565b6020604051808303816000875af11580156112d0573d6000803e3d6000fd5b505050506040513d601f19601f820116820180604052508101906112f49190612a62565b506002546001600160a01b03808416600081815260046020526040902054909263a9059cbb9216906113269085612a4f565b6040518363ffffffff1660e01b8152600401611343929190612a84565b6020604051808303816000875af1158015611362573d6000803e3d6000fd5b505050506040513d601f19601f820116820180604052508101906113869190612a62565b50816001600160a01b031663a9059cbb836001600160a01b031663ae1673356040518163ffffffff1660e01b8152600401602060405180830381865afa1580156113d4573d6000803e3d6000fd5b505050506040513d601f19601f820116820180604052508101906113f89190612797565b6001600160a01b0385166000818152600460208190526040918290205491516370a0823160e01b815230918101919091529091906370a0823190602401602060405180830381865afa158015611452573d6000803e3d6000fd5b505050506040513d601f19601f82011682018060405250810190611476919061277e565b6114809190612a4f565b6040518363ffffffff1660e01b815260040161149d929190612a84565b6020604051808303816000875af11580156114bc573d6000803e3d6000fd5b505050506040513d601f19601f820116820180604052508101906114e09190612a62565b505050565b60008181526005602090815260408083208151610140810190925280546001600160a01b03811683529192909190830190600160a01b900460ff166004811115611531576115316122a9565b6004811115611542576115426122a9565b8152602001600182015481526020016002820154815260200160038201548152602001600482016002806020026040519081016040528092919082600280156115a0576020028201915b81548152602001906001019080831161158c575b505050918352505060068201546001600160a01b0390811660208301526007830154166040820152600882015460608201526009820180546080909201916115e790612839565b80601f016020809104026020016040519081016040528092919081815260200182805461161390612839565b80156116605780601f1061163557610100808354040283529160200191611660565b820191906000526020600020905b81548152906001019060200180831161164357829003601f168201915b50505050508152505090508061010001516001148015611695575060e08101516001600160a01b0316336001600160a01b0316145b15611857576000828152600560208190526040822080546001600160a81b0319168155600181018390556002810183905560038101839055600481018390559081018290556006810180546001600160a01b03199081169091556007820180549091169055600881018290559061170f60098301826121d7565b505080516001600160a01b031663a9059cbb33606084015161173990670de0b6b3a76400006129fe565b6040518363ffffffff1660e01b8152600401611756929190612a84565b6020604051808303816000875af1158015611775573d6000803e3d6000fd5b505050506040513d601f19601f820116820180604052508101906117999190612a62565b6117b657604051634ebafae360e11b815260040160405180910390fd5b80516001906001600160a01b031663dd62ed3e336040516001600160e01b031960e084901b1681526001600160a01b039091166004820152306024820152604401602060405180830381865afa158015611814573d6000803e3d6000fd5b505050506040513d601f19601f82011682018060405250810190611838919061277e565b11156118575760405163f655d08f60e01b815260040160405180910390fd5b428160400151118061187f575060c08101516001600160a01b0316336001600160a01b031614155b1561189d57604051638d0cd61b60e01b815260040160405180910390fd5b60006305f5e1006118e983600001516001600160a01b031663b16a19de6040518163ffffffff1660e01b8152600401602060405180830381865afa15801561037a573d6000803e3d6000fd5b6118f391906127ca565b9050600060038360200151600481111561190f5761190f6122a9565b03611c8657826101000151821015611b515760008360600151838561010001516119399190612a4f565b61194391906129fe565b61195590670de0b6b3a76400006129fe565b60005460c08601516040516340c10f1960e01b81529293506001600160a01b03909116916340c10f199161198d918590600401612a84565b600060405180830381600087803b1580156119a757600080fd5b505af11580156119bb573d6000803e3d6000fd5b505060005460e087015160808801516001600160a01b03909216935063a9059cbb9250906119f190670de0b6b3a76400006129fe565b6040518363ffffffff1660e01b8152600401611a0e929190612a84565b6020604051808303816000875af1158015611a2d573d6000803e3d6000fd5b505050506040513d601f19601f82011682018060405250810190611a519190612a62565b5083600001516001600160a01b031663a9059cbb85600001516001600160a01b031663ae1673356040518163ffffffff1660e01b8152600401602060405180830381865afa158015611aa7573d6000803e3d6000fd5b505050506040513d601f19601f82011682018060405250810190611acb9190612797565b6060870151611ae290670de0b6b3a76400006129fe565b6040518363ffffffff1660e01b8152600401611aff929190612a84565b6020604051808303816000875af1158015611b1e573d6000803e3d6000fd5b505050506040513d601f19601f82011682018060405250810190611b429190612a62565b50506001610100840152611c86565b8261010001518360800151611b669190612a4f565b611b7890670de0b6b3a76400006129fe565b60005460e08501519192506001600160a01b03169063a9059cbb90611b9e6002856127ca565b6040518363ffffffff1660e01b8152600401611bbb929190612a84565b6020604051808303816000875af1158015611bda573d6000803e3d6000fd5b505050506040513d601f19601f82011682018060405250810190611bfe9190612a62565b506000546001600160a01b031663a9059cbb33611c1c6014856127ca565b6040518363ffffffff1660e01b8152600401611c39929190612a84565b6020604051808303816000875af1158015611c58573d6000803e3d6000fd5b505050506040513d601f19601f82011682018060405250810190611c7c9190612a62565b5060006101008401525b600283602001516004811115611c9e57611c9e6122a9565b03611f0f578260800151821115611dec5760008360600151846080015184611cc69190612a4f565b611cd091906129fe565b611ce290670de0b6b3a76400006129fe565b60005460c08601516040516340c10f1960e01b81529293506001600160a01b03909116916340c10f1991611d1a918590600401612a84565b600060405180830381600087803b158015611d3457600080fd5b505af1158015611d48573d6000803e3d6000fd5b505060005460e0870151606088015160808901516001600160a01b0390931694506340c10f1993509091611d7c91906129fe565b611d8e90670de0b6b3a76400006129fe565b6040518363ffffffff1660e01b8152600401611dab929190612a84565b600060405180830381600087803b158015611dc557600080fd5b505af1158015611dd9573d6000803e3d6000fd5b5050600161010087015250611f0f915050565b8261010001518360800151611e019190612a4f565b60005460e08501519192506001600160a01b03169063a9059cbb90611e276002856127ca565b6040518363ffffffff1660e01b8152600401611e44929190612a84565b6020604051808303816000875af1158015611e63573d6000803e3d6000fd5b505050506040513d601f19601f82011682018060405250810190611e879190612a62565b506000546001600160a01b031663a9059cbb33611ea56014856127ca565b6040518363ffffffff1660e01b8152600401611ec2929190612a84565b6020604051808303816000875af1158015611ee1573d6000803e3d6000fd5b505050506040513d601f19601f82011682018060405250810190611f059190612a62565b5060006101008401525b600060c084018190526040808501829052858252600560209081529120845181546001600160a01b031981166001600160a01b039092169182178355928601518693909183916001600160a81b03191617600160a01b836004811115611f7757611f776122a9565b021790555060408201518160010155606082015181600201556080820151816003015560a082015181600401906002611fb1929190612199565b5060c08201516006820180546001600160a01b039283166001600160a01b03199182161790915560e08401516007840180549190931691161790556101008201516008820155610120820151600982019061200c9082612aeb565b50506040518581527f9ceb78df2b9170e1bef54abc35dddaeaa8a7a855b3a4f2577410ccb703a43d5f915060200160405180910390a150505050565b60008061209083600001516001600160a01b031663b16a19de6040518163ffffffff1660e01b8152600401602060405180830381865afa15801561037a573d6000803e3d6000fd5b61209f906402540be4006129fe565b90508260600151818460800151670de0b6b3a76400006120bf91906129fe565b6120c99190612a4f565b6120d391906129fe565b9150915091565b6040517f19457468657265756d205369676e6564204d6573736167653a0a3332000000006020820152603c8101829052600090605c01604051602081830303815290604052805190602001209050919050565b604080516101408101909152600080825260208201908152602001600081526020016000815260200160008152602001612165612214565b815260200160006001600160a01b0316815260200160006001600160a01b0316815260200160008152602001606081525090565b82600281019282156121c7579160200282015b828111156121c75782518255916020019190600101906121ac565b506121d3929150612232565b5090565b5080546121e390612839565b6000825580601f106121f3575050565b601f0160209004906000526020600020908101906122119190612232565b50565b60405180604001604052806002906020820280368337509192915050565b5b808211156121d35760008155600101612233565b6001600160a01b038116811461221157600080fd5b803561226781612247565b919050565b60006020828403121561227e57600080fd5b813561228981612247565b9392505050565b6000602082840312156122a257600080fd5b5035919050565b634e487b7160e01b600052602160045260246000fd5b600581106122dd57634e487b7160e01b600052602160045260246000fd5b9052565b8060005b60028110156123045781518452602093840193909101906001016122e5565b50505050565b6000815180845260005b8181101561233057602081850181015186830182015201612314565b506000602082860101526020601f19601f83011685010191505092915050565b6020815261236a6020820183516001600160a01b03169052565b6000602083015161237e60408401826122bf565b506040830151606083015260608301516080830152608083015160a083015260a08301516123af60c08401826122e1565b5060c08301516101006123cc818501836001600160a01b03169052565b60e085015191506101206123ea818601846001600160a01b03169052565b9085015161014085015284015161016080850152905061240e61018084018261230a565b949350505050565b600081518084526020808501945080840160005b8381101561244f5781516001600160a01b03168752958201959082019060010161242a565b509495945050505050565b60408152600061246d6040830185612416565b82810360208481019190915284518083528582019282019060005b818110156124a457845183529383019391830191600101612488565b5090979650505050505050565b634e487b7160e01b600052604160045260246000fd5b604051610140810167ffffffffffffffff811182821017156124eb576124eb6124b1565b60405290565b604051601f8201601f1916810167ffffffffffffffff8111828210171561251a5761251a6124b1565b604052919050565b600082601f83011261253357600080fd5b813567ffffffffffffffff81111561254d5761254d6124b1565b612560601f8201601f19166020016124f1565b81815284602083860101111561257557600080fd5b816020850160208301376000918101602001919091529392505050565b600080604083850312156125a557600080fd5b82359150602083013567ffffffffffffffff8111156125c357600080fd5b6125cf85828601612522565b9150509250929050565b6000602082840312156125eb57600080fd5b813567ffffffffffffffff81111561260257600080fd5b61240e84828501612522565b80356005811061226757600080fd5b600082601f83011261262e57600080fd5b6040516040810181811067ffffffffffffffff82111715612651576126516124b1565b806040525080604084018581111561266857600080fd5b845b8181101561268257803583526020928301920161266a565b509195945050505050565b60006020828403121561269f57600080fd5b813567ffffffffffffffff808211156126b757600080fd5b9083019061016082860312156126cc57600080fd5b6126d46124c7565b6126dd8361225c565b81526126eb6020840161260e565b602082015260408301356040820152606083013560608201526080830135608082015261271b8660a0850161261d565b60a082015261272c60e0840161225c565b60c082015261010061273f81850161225c565b60e0830152610120808501358284015261014085013591508382111561276457600080fd5b61277088838701612522565b908301525095945050505050565b60006020828403121561279057600080fd5b5051919050565b6000602082840312156127a957600080fd5b815161228981612247565b634e487b7160e01b600052601160045260246000fd5b6000826127e757634e487b7160e01b600052601260045260246000fd5b500490565b60008060006060848603121561280157600080fd5b835161280c81612247565b602085015190935061281d81612247565b604085015190925061282e81612247565b809150509250925092565b600181811c9082168061284d57607f821691505b60208210810361286d57634e487b7160e01b600052602260045260246000fd5b50919050565b634e487b7160e01b600052603260045260246000fd5b60006001820161289b5761289b6127b4565b5060010190565b600067ffffffffffffffff8211156128bc576128bc6124b1565b5060051b60200190565b600060208083850312156128d957600080fd5b825167ffffffffffffffff8111156128f057600080fd5b8301601f8101851361290157600080fd5b805161291461290f826128a2565b6124f1565b81815260059190911b8201830190838101908783111561293357600080fd5b928401925b8284101561295a57835161294b81612247565b82529284019290840190612938565b979650505050505050565b6020815260006122896020830184612416565b6000602080838503121561298b57600080fd5b825167ffffffffffffffff8111156129a257600080fd5b8301601f810185136129b357600080fd5b80516129c161290f826128a2565b81815260059190911b820183019083810190878311156129e057600080fd5b928401925b8284101561295a578351825292840192908401906129e5565b808202811582820484141761032c5761032c6127b4565b6001600160801b03818116838216019080821115612a3557612a356127b4565b5092915050565b8082018082111561032c5761032c6127b4565b8181038181111561032c5761032c6127b4565b600060208284031215612a7457600080fd5b8151801515811461228957600080fd5b6001600160a01b03929092168252602082015260400190565b601f8211156114e057600081815260208120601f850160051c81016020861015612ac45750805b601f850160051c820191505b81811015612ae357828155600101612ad0565b505050505050565b815167ffffffffffffffff811115612b0557612b056124b1565b612b1981612b138454612839565b84612a9d565b602080601f831160018114612b4e5760008415612b365750858301515b600019600386901b1c1916600185901b178555612ae3565b600085815260208120601f198616915b82811015612b7d57888601518255948401946001909101908401612b5e565b5085821015612b9b5787850151600019600388901b60f8161c191681555b5050505050600190811b0190555056fea264697066735822122005af95fc829ac147165e6b5b376682202edb250c1233196e45584f8e8cb4053864736f6c63430008140033","linkReferences":{}},"methodIdentifiers":{"GHO()":"b8d008f3","calculateTakePrice((address,uint8,uint256,uint256,uint256,uint256[2],address,address,uint256,bytes))":"edf51fdd","genesis()":"a7f0b3de","getATokenAddressFor(address)":"15f14824","getAllAaveAssetPrices()":"78f34416","getAllAssetsPrices()":"a935310f","getEthSignedMessageHash(bytes32)":"fa540801","getPosition(bytes32)":"1928b3cb","getPriceOfAaveAsset(address)":"0f0a4ab1","getPriceOfAsset(address)":"0b13a88d","liquidatePosition(bytes32)":"eaf7762c","profitTake(address)":"ea2b5b43","recoverSigner(bytes32,bytes)":"97aba7f9","splitSignature(bytes)":"a7bb5803","takePosition((address,uint8,uint256,uint256,uint256,uint256[2],address,address,uint256,bytes))":"d286cc52","updateBucketCapacity()":"c4e8e0de","verifyLPsig((address,uint8,uint256,uint256,uint256,uint256[2],address,address,uint256,bytes))":"e64a8fc8"},"id":48}