{"abi":[{"type":"constructor","inputs":[{"name":"denominator","type":"address","internalType":"address"}],"stateMutability":"nonpayable"},{"type":"function","name":"GHO","inputs":[],"outputs":[{"name":"","type":"address","internalType":"contract IGhoToken"}],"stateMutability":"view"},{"type":"function","name":"calculateTakePrice","inputs":[{"name":"P","type":"tuple","internalType":"struct Position","components":[{"name":"asset","type":"address","internalType":"address"},{"name":"state","type":"uint8","internalType":"enum State"},{"name":"expriresAt","type":"uint256","internalType":"uint256"},{"name":"amount","type":"uint256","internalType":"uint256"},{"name":"wantedPrice","type":"uint256","internalType":"uint256"},{"name":"durationBalance","type":"uint256[2]","internalType":"uint256[2]"},{"name":"taker","type":"address","internalType":"address"},{"name":"lper","type":"address","internalType":"address"},{"name":"executionPrice","type":"uint256","internalType":"uint256"},{"name":"LPsig","type":"bytes","internalType":"bytes"}]}],"outputs":[{"name":"cost","type":"uint256","internalType":"uint256"},{"name":"executionPrice","type":"uint256","internalType":"uint256"}],"stateMutability":"view"},{"type":"function","name":"genesis","inputs":[],"outputs":[{"name":"","type":"address","internalType":"address"}],"stateMutability":"view"},{"type":"function","name":"getATokenAddressFor","inputs":[{"name":"assetAddress","type":"address","internalType":"address"}],"outputs":[{"name":"aToken","type":"address","internalType":"address"}],"stateMutability":"view"},{"type":"function","name":"getAllAaveAssetPrices","inputs":[],"outputs":[{"name":"assets","type":"address[]","internalType":"address[]"},{"name":"prices","type":"uint256[]","internalType":"uint256[]"}],"stateMutability":"view"},{"type":"function","name":"getAllAssetsPrices","inputs":[],"outputs":[{"name":"assets","type":"address[]","internalType":"address[]"},{"name":"prices","type":"uint256[]","internalType":"uint256[]"}],"stateMutability":"view"},{"type":"function","name":"getEthSignedMessageHash","inputs":[{"name":"_messageHash","type":"bytes32","internalType":"bytes32"}],"outputs":[{"name":"","type":"bytes32","internalType":"bytes32"}],"stateMutability":"pure"},{"type":"function","name":"getPosition","inputs":[{"name":"hashOf","type":"bytes32","internalType":"bytes32"}],"outputs":[{"name":"","type":"tuple","internalType":"struct Position","components":[{"name":"asset","type":"address","internalType":"address"},{"name":"state","type":"uint8","internalType":"enum State"},{"name":"expriresAt","type":"uint256","internalType":"uint256"},{"name":"amount","type":"uint256","internalType":"uint256"},{"name":"wantedPrice","type":"uint256","internalType":"uint256"},{"name":"durationBalance","type":"uint256[2]","internalType":"uint256[2]"},{"name":"taker","type":"address","internalType":"address"},{"name":"lper","type":"address","internalType":"address"},{"name":"executionPrice","type":"uint256","internalType":"uint256"},{"name":"LPsig","type":"bytes","internalType":"bytes"}]}],"stateMutability":"view"},{"type":"function","name":"getPriceOfAaveAsset","inputs":[{"name":"aTokenAddress","type":"address","internalType":"address"}],"outputs":[{"name":"","type":"uint256","internalType":"uint256"}],"stateMutability":"view"},{"type":"function","name":"getPriceOfAsset","inputs":[{"name":"Asset","type":"address","internalType":"address"}],"outputs":[{"name":"","type":"uint256","internalType":"uint256"}],"stateMutability":"view"},{"type":"function","name":"liquidatePosition","inputs":[{"name":"positionHash","type":"bytes32","internalType":"bytes32"}],"outputs":[],"stateMutability":"nonpayable"},{"type":"function","name":"profitTake","inputs":[{"name":"Aasset_","type":"address","internalType":"address"}],"outputs":[],"stateMutability":"nonpayable"},{"type":"function","name":"recoverSigner","inputs":[{"name":"_ethSignedMessageHash","type":"bytes32","internalType":"bytes32"},{"name":"_signature","type":"bytes","internalType":"bytes"}],"outputs":[{"name":"","type":"address","internalType":"address"}],"stateMutability":"pure"},{"type":"function","name":"splitSignature","inputs":[{"name":"sig","type":"bytes","internalType":"bytes"}],"outputs":[{"name":"r","type":"bytes32","internalType":"bytes32"},{"name":"s","type":"bytes32","internalType":"bytes32"},{"name":"v","type":"uint8","internalType":"uint8"}],"stateMutability":"pure"},{"type":"function","name":"takePosition","inputs":[{"name":"P","type":"tuple","internalType":"struct Position","components":[{"name":"asset","type":"address","internalType":"address"},{"name":"state","type":"uint8","internalType":"enum State"},{"name":"expriresAt","type":"uint256","internalType":"uint256"},{"name":"amount","type":"uint256","internalType":"uint256"},{"name":"wantedPrice","type":"uint256","internalType":"uint256"},{"name":"durationBalance","type":"uint256[2]","internalType":"uint256[2]"},{"name":"taker","type":"address","internalType":"address"},{"name":"lper","type":"address","internalType":"address"},{"name":"executionPrice","type":"uint256","internalType":"uint256"},{"name":"LPsig","type":"bytes","internalType":"bytes"}]}],"outputs":[{"name":"","type":"bytes32","internalType":"bytes32"}],"stateMutability":"nonpayable"},{"type":"function","name":"updateBucketCapacity","inputs":[],"outputs":[],"stateMutability":"nonpayable"},{"type":"function","name":"verifyLPsig","inputs":[{"name":"P","type":"tuple","internalType":"struct Position","components":[{"name":"asset","type":"address","internalType":"address"},{"name":"state","type":"uint8","internalType":"enum State"},{"name":"expriresAt","type":"uint256","internalType":"uint256"},{"name":"amount","type":"uint256","internalType":"uint256"},{"name":"wantedPrice","type":"uint256","internalType":"uint256"},{"name":"durationBalance","type":"uint256[2]","internalType":"uint256[2]"},{"name":"taker","type":"address","internalType":"address"},{"name":"lper","type":"address","internalType":"address"},{"name":"executionPrice","type":"uint256","internalType":"uint256"},{"name":"LPsig","type":"bytes","internalType":"bytes"}]}],"outputs":[{"name":"s","type":"bool","internalType":"bool"}],"stateMutability":"pure"},{"type":"event","name":"NewPosition","inputs":[{"name":"positionHash","type":"bytes32","indexed":false,"internalType":"bytes32"}],"anonymous":false},{"type":"event","name":"PositionLiquid","inputs":[{"name":"positionHash","type":"bytes32","indexed":false,"internalType":"bytes32"}],"anonymous":false},{"type":"error","name":"AZero","inputs":[]},{"type":"error","name":"AaveRug","inputs":[]},{"type":"error","name":"AlreadyTaken","inputs":[]},{"type":"error","name":"BadSigP","inputs":[]},{"type":"error","name":"Illegal","inputs":[]},{"type":"error","name":"InsufficientDuration","inputs":[]},{"type":"error","name":"InvalidExecutionPrice","inputs":[]},{"type":"error","name":"MinOneDay","inputs":[]},{"type":"error","name":"NotADex","inputs":[]},{"type":"error","name":"NotTaker","inputs":[]},{"type":"error","name":"OnlyTakerOrExpired","inputs":[]},{"type":"error","name":"ResidualPermit","inputs":[]},{"type":"error","name":"TransferFaileure","inputs":[]},{"type":"error","name":"Untaken","inputs":[]},{"type":"error","name":"ValueSensitivity","inputs":[]}],"bytecode":{"object":"0x6080604052600180546001600160a01b0319167354586be62e3c3580375ae3723c145253060ca0c21790553480156200003757600080fd5b5060405162003356380380620033568339810160408190526200005a9162000334565b600080546001600160a01b0383166001600160a01b0319918216179091556002805490911633179055806200008e62000096565b5050620005d5565b3060009081526003602052604090205460ff1615620000b457600080fd5b600080620000c162000182565b9150915060005b81518110156200016357630b2f60b1828281518110620000ec57620000ec62000359565b602002602001015111156200014e5760006200012a84838151811062000116576200011662000359565b60200260200101516200028c60201b60201c565b6001600160a01b03166000908152600360205260409020805460ff19166001179055505b806200015a816200036f565b915050620000c8565b5050306000908152600360205260409020805460ff1916600117905550565b6060807387870bca3f3fd6335c3f4ce8392d69350b4fa4e26001600160a01b031663d1946dbc6040518163ffffffff1660e01b8152600401600060405180830381865afa158015620001d8573d6000803e3d6000fd5b505050506040513d6000823e601f3d908101601f1916820160405262000202919081019062000406565b604051634e91ecf960e11b81529092507354586be62e3c3580375ae3723c145253060ca0c290639d23d9f2906200023e908590600401620004ae565b600060405180830381865afa1580156200025c573d6000803e3d6000fd5b505050506040513d6000823e601f3d908101601f19168201604052620002869190810190620004fd565b90509091565b6040516334924edb60e21b81526001600160a01b0382166004820152600090737b4eb56e7cd4b454ba8ff71e4518426369a138a39063d2493b6c90602401606060405180830381865afa158015620002e8573d6000803e3d6000fd5b505050506040513d601f19601f820116820180604052508101906200030e91906200058b565b50909392505050565b80516001600160a01b03811681146200032f57600080fd5b919050565b6000602082840312156200034757600080fd5b620003528262000317565b9392505050565b634e487b7160e01b600052603260045260246000fd5b6000600182016200039057634e487b7160e01b600052601160045260246000fd5b5060010190565b634e487b7160e01b600052604160045260246000fd5b604051601f8201601f191681016001600160401b0381118282101715620003d857620003d862000397565b604052919050565b60006001600160401b03821115620003fc57620003fc62000397565b5060051b60200190565b600060208083850312156200041a57600080fd5b82516001600160401b038111156200043157600080fd5b8301601f810185136200044357600080fd5b80516200045a6200045482620003e0565b620003ad565b81815260059190911b820183019083810190878311156200047a57600080fd5b928401925b82841015620004a357620004938462000317565b825292840192908401906200047f565b979650505050505050565b6020808252825182820181905260009190848201906040850190845b81811015620004f15783516001600160a01b031683529284019291840191600101620004ca565b50909695505050505050565b600060208083850312156200051157600080fd5b82516001600160401b038111156200052857600080fd5b8301601f810185136200053a57600080fd5b80516200054b6200045482620003e0565b81815260059190911b820183019083810190878311156200056b57600080fd5b928401925b82841015620004a35783518252928401929084019062000570565b600080600060608486031215620005a157600080fd5b620005ac8462000317565b9250620005bc6020850162000317565b9150620005cc6040850162000317565b90509250925092565b612d7180620005e56000396000f3fe608060405234801561001057600080fd5b506004361061010b5760003560e01c8063a935310f116100a2578063e64a8fc811610071578063e64a8fc814610239578063ea2b5b431461025c578063eaf7762c1461026f578063edf51fdd14610282578063fa540801146102aa57600080fd5b8063a935310f14610201578063b8d008f314610209578063c4e8e0de1461021c578063d286cc521461022657600080fd5b806378f34416116100de57806378f344161461019457806397aba7f9146101aa578063a7bb5803146101bd578063a7f0b3de146101ee57600080fd5b80630b13a88d146101105780630f0a4ab11461013657806315f14824146101495780631928b3cb14610174575b600080fd5b61012361011e3660046123fc565b6102bd565b6040519081526020015b60405180910390f35b6101236101443660046123fc565b610332565b61015c6101573660046123fc565b6103a8565b6040516001600160a01b03909116815260200161012d565b610187610182366004612420565b610430565b60405161012d91906124e0565b61019c6105c1565b60405161012d9291906125ea565b61015c6101b8366004612722565b610640565b6101d06101cb366004612769565b6106bf565b60408051938452602084019290925260ff169082015260600161012d565b60025461015c906001600160a01b031681565b61019c610737565b60005461015c906001600160a01b031681565b610224610839565b005b61012361023436600461281d565b610a34565b61024c61024736600461281d565b61113c565b604051901515815260200161012d565b61022461026a3660046123fc565b6111dc565b61022461027d366004612420565b6114e5565b61029561029036600461281d565b6121d8565b6040805192835260208301919091520161012d565b6101236102b8366004612420565b61226a565b60015460405163b3596f0760e01b81526001600160a01b038381166004830152600092169063b3596f0790602401602060405180830381865afa158015610308573d6000803e3d6000fd5b505050506040513d601f19601f8201168201806040525081019061032c919061290e565b92915050565b60006305f5e10061039e836001600160a01b031663b16a19de6040518163ffffffff1660e01b8152600401602060405180830381865afa15801561037a573d6000803e3d6000fd5b505050506040513d601f19601f8201168201806040525081019061011e9190612927565b61032c919061295a565b6040516334924edb60e21b81526001600160a01b0382166004820152600090737b4eb56e7cd4b454ba8ff71e4518426369a138a39063d2493b6c90602401606060405180830381865afa158015610403573d6000803e3d6000fd5b505050506040513d601f19601f82011682018060405250810190610427919061297c565b50909392505050565b6104386122bd565b6000828152600560209081526040918290208251610140810190935280546001600160a01b03811684529091830190600160a01b900460ff16600481111561048257610482612439565b600481111561049357610493612439565b8152602001600182015481526020016002820154815260200160038201548152602001600482016002806020026040519081016040528092919082600280156104f1576020028201915b8154815260200190600101908083116104dd575b505050918352505060068201546001600160a01b039081166020830152600783015416604082015260088201546060820152600982018054608090920191610538906129c9565b80601f0160208091040260200160405190810160405280929190818152602001828054610564906129c9565b80156105b15780601f10610586576101008083540402835291602001916105b1565b820191906000526020600020905b81548152906001019060200180831161059457829003601f168201915b5050505050815250509050919050565b6060806105cc610737565b909250905060005b825181101561063b576105ff8382815181106105f2576105f2612a03565b60200260200101516103a8565b83828151811061061157610611612a03565b6001600160a01b03909216602092830291909101909101528061063381612a19565b9150506105d4565b509091565b60008060008061064f856106bf565b6040805160008152602081018083528b905260ff8316918101919091526060810184905260808101839052929550909350915060019060a0016020604051602081039080840390855afa1580156106aa573d6000803e3d6000fd5b5050604051601f190151979650505050505050565b600080600083516041146107195760405162461bcd60e51b815260206004820152601860248201527f696e76616c6964207369676e6174757265206c656e6774680000000000000000604482015260640160405180910390fd5b50505060208101516040820151606090920151909260009190911a90565b6060807387870bca3f3fd6335c3f4ce8392d69350b4fa4e26001600160a01b031663d1946dbc6040518163ffffffff1660e01b8152600401600060405180830381865afa15801561078c573d6000803e3d6000fd5b505050506040513d6000823e601f3d908101601f191682016040526107b49190810190612a56565b604051634e91ecf960e11b81529092507354586be62e3c3580375ae3723c145253060ca0c290639d23d9f2906107ee908590600401612af5565b600060405180830381865afa15801561080b573d6000803e3d6000fd5b505050506040513d6000823e601f3d908101601f191682016040526108339190810190612b08565b90509091565b600080610844610737565b90925090506000805b83518110156109c25761086b8482815181106105f2576105f2612a03565b84828151811061087d5761087d612a03565b60200260200101906001600160a01b031690816001600160a01b031681525050600360008583815181106108b3576108b3612a03565b6020908102919091018101516001600160a01b031682528101919091526040016000205460ff16156109b05760008482815181106108f3576108f3612a03565b60209081029190910101516040516370a0823160e01b81523060048201526001600160a01b03909116906370a0823190602401602060405180830381865afa158015610943573d6000803e3d6000fd5b505050506040513d601f19601f82011682018060405250810190610967919061290e565b90506000816305f5e10086858151811061098357610983612a03565b6020026020010151610995919061295a565b61099f9190612b8e565b90506109ab8185612ba5565b935050505b806109ba81612a19565b91505061084d565b5060005460405163af93df5760e01b81523060048201526001600160801b03831660248201526001600160a01b039091169063af93df5790604401600060405180830381600087803b158015610a1757600080fd5b505af1158015610a2b573d6000803e3d6000fd5b50505050505050565b80516001600160a01b031660009081526003602052604081205460ff16610a6e5760405163c9c4bbdf60e01b815260040160405180910390fd5b600182602001516004811115610a8657610a86612439565b60ff1611610aa75760405163239aa90f60e11b815260040160405180910390fd5b81606001518260800151836101000151610ac19190612b8e565b610acb9190612b8e565b600003610aeb576040516301cf70f360e41b815260040160405180910390fd5b816080015182610100015110610b14576040516311d4fd3f60e21b815260040160405180910390fd5b600080610b20846121d8565b9092509050610b37670de0b6b3a76400008261295a565b84610100015114610b5b576040516304ac495360e21b815260040160405180910390fd5b6000610b6a4262015180612bcc565b85604001511015610b7c576000610b8c565b428560400151610b8c9190612bdf565b905080600003610baf5760405163da7518ef60e01b815260040160405180910390fd5b60a085015151811115610bd5576040516363c0bec760e01b815260040160405180910390fd5b60c08501516001600160a01b03163314610c0257604051635211a07960e01b815260040160405180910390fd5b3360c08601526060850151600090610c2290670de0b6b3a7640000612b8e565b905082866060015185610c35919061295a565b1115610c545760405163439166d960e11b815260040160405180910390fd5b6000546001600160a01b03166323b872dd336040516001600160e01b031960e084901b1681526001600160a01b039091166004820152306024820152604481018790526064016020604051808303816000875af1158015610cb9573d6000803e3d6000fd5b505050506040513d601f19601f82011682018060405250810190610cdd9190612bf2565b8015610d645750855160e08701516040516323b872dd60e01b81526001600160a01b039182166004820152306024820152604481018490529116906323b872dd906064016020604051808303816000875af1158015610d40573d6000803e3d6000fd5b505050506040513d601f19601f82011682018060405250810190610d649190612bf2565b610d8157604051634ebafae360e11b815260040160405180910390fd5b85516001600160a01b031660009081526004602052604081208054839290610daa908490612bcc565b909155506003905086602001516004811115610dc857610dc8612439565b03610f3d57600080546040516370a0823160e01b81523060048201526001600160a01b03909116906370a0823190602401602060405180830381865afa158015610e16573d6000803e3d6000fd5b505050506040513d601f19601f82011682018060405250810190610e3a919061290e565b60005460608901519192506001600160a01b0316906340c10f19903090610e619088612b8e565b6040518363ffffffff1660e01b8152600401610e7e929190612c14565b600060405180830381600087803b158015610e9857600080fd5b505af1158015610eac573d6000803e3d6000fd5b50506000546040516370a0823160e01b81523060048201526001600160a01b0390911692506370a082319150602401602060405180830381865afa158015610ef8573d6000803e3d6000fd5b505050506040513d601f19601f82011682018060405250810190610f1c919061290e565b8110610f3b5760405163dd27098360e01b815260040160405180910390fd5b505b60a08601516020015115610f645760a086015160200151610f5f908390612bdf565b610f75565b60a086015151610f75908390612bdf565b60a0870151602090810191909152604051600091610f95918991016124e0565b6040516020818303038152906040528051906020012090506001600560008381526020019081526020016000206008015410610fe457604051630c0e5cf760e21b815260040160405180910390fd5b6000818152600560209081526040909120885181546001600160a01b031981166001600160a01b039092169182178355928a01518a93909183916001600160a81b03191617600160a01b83600481111561104057611040612439565b021790555060408201518160010155606082015181600201556080820151816003015560a08201518160040190600261107a929190612329565b5060c08201516006820180546001600160a01b039283166001600160a01b03199182161790915560e0840151600784018054919093169116179055610100820151600882015561012082015160098201906110d59082612c7b565b509050506110e28761113c565b6110ff57604051630776f20b60e51b815260040160405180910390fd5b6040518181527fb5d1e17d6ac79bd35ea3fc367695ca5d7d85fa261d65aeeeac772010da685e5c9060200160405180910390a19695505050505050565b610120810180516000610100840181905260408401819052606090925260c083018290526001602084018190525060a08301516000602091820181905260405190916111a99161118e918791016124e0565b6040516020818303038152906040528051906020012061226a565b905060006111b78284610640565b90508460e001516001600160a01b0316816001600160a01b0316149350505050919050565b6040516370a0823160e01b81523060048201526000906065906001600160a01b038416906370a0823190602401602060405180830381865afa158015611226573d6000803e3d6000fd5b505050506040513d601f19601f8201168201806040525081019061124a919061290e565b611254919061295a565b6002546001600160a01b038085166000818152600460205260409020549394509263a9059cbb929091169061128a856045612b8e565b6112949190612bdf565b6040518363ffffffff1660e01b81526004016112b1929190612c14565b6020604051808303816000875af11580156112d0573d6000803e3d6000fd5b505050506040513d601f19601f820116820180604052508101906112f49190612bf2565b506002546001600160a01b03808416600081815260046020526040902054909263a9059cbb9216906113269085612bdf565b6040518363ffffffff1660e01b8152600401611343929190612c14565b6020604051808303816000875af1158015611362573d6000803e3d6000fd5b505050506040513d601f19601f820116820180604052508101906113869190612bf2565b50816001600160a01b031663a9059cbb836001600160a01b031663ae1673356040518163ffffffff1660e01b8152600401602060405180830381865afa1580156113d4573d6000803e3d6000fd5b505050506040513d601f19601f820116820180604052508101906113f89190612927565b6001600160a01b0385166000818152600460208190526040918290205491516370a0823160e01b815230918101919091529091906370a0823190602401602060405180830381865afa158015611452573d6000803e3d6000fd5b505050506040513d601f19601f82011682018060405250810190611476919061290e565b6114809190612bdf565b6040518363ffffffff1660e01b815260040161149d929190612c14565b6020604051808303816000875af11580156114bc573d6000803e3d6000fd5b505050506040513d601f19601f820116820180604052508101906114e09190612bf2565b505050565b60008181526005602090815260408083208151610140810190925280546001600160a01b03811683529192909190830190600160a01b900460ff16600481111561153157611531612439565b600481111561154257611542612439565b8152602001600182015481526020016002820154815260200160038201548152602001600482016002806020026040519081016040528092919082600280156115a0576020028201915b81548152602001906001019080831161158c575b505050918352505060068201546001600160a01b0390811660208301526007830154166040820152600882015460608201526009820180546080909201916115e7906129c9565b80601f0160208091040260200160405190810160405280929190818152602001828054611613906129c9565b80156116605780601f1061163557610100808354040283529160200191611660565b820191906000526020600020905b81548152906001019060200180831161164357829003601f168201915b50505050508152505090508061010001516001148015611695575060e08101516001600160a01b0316336001600160a01b0316145b1561185b576000828152600560208190526040822080546001600160a81b0319168155600181018390556002810183905560038101839055600481018390559081018290556006810180546001600160a01b03199081169091556007820180549091169055600881018290559061170f6009830182612367565b505080516001600160a01b031663a9059cbb33606084015161173990670de0b6b3a7640000612b8e565b6040518363ffffffff1660e01b8152600401611756929190612c14565b6020604051808303816000875af1158015611775573d6000803e3d6000fd5b505050506040513d601f19601f820116820180604052508101906117999190612bf2565b6117b657604051634ebafae360e11b815260040160405180910390fd5b80516001906001600160a01b031663dd62ed3e336040516001600160e01b031960e084901b1681526001600160a01b039091166004820152306024820152604401602060405180830381865afa158015611814573d6000803e3d6000fd5b505050506040513d601f19601f82011682018060405250810190611838919061290e565b11156118575760405163f655d08f60e01b815260040160405180910390fd5b5050565b4281604001511180611883575060c08101516001600160a01b0316336001600160a01b031614155b156118a157604051638d0cd61b60e01b815260040160405180910390fd5b60006305f5e1006118ed83600001516001600160a01b031663b16a19de6040518163ffffffff1660e01b8152600401602060405180830381865afa15801561037a573d6000803e3d6000fd5b6118f7919061295a565b9050600060038360200151600481111561191357611913612439565b03611ce157826101000151821015611bac57600083606001518385610100015161193d9190612bdf565b6119479190612b8e565b61195990670de0b6b3a7640000612b8e565b60005460c086015160405163a9059cbb60e01b81529293506001600160a01b039091169163a9059cbb91611991918590600401612c14565b6020604051808303816000875af11580156119b0573d6000803e3d6000fd5b505050506040513d601f19601f820116820180604052508101906119d49190612bf2565b5060005460e085015160808601516001600160a01b039092169163a9059cbb9190611a0790670de0b6b3a7640000612b8e565b6040518363ffffffff1660e01b8152600401611a24929190612c14565b6020604051808303816000875af1158015611a43573d6000803e3d6000fd5b505050506040513d601f19601f82011682018060405250810190611a679190612bf2565b5083600001516001600160a01b031663a9059cbb85600001516001600160a01b031663ae1673356040518163ffffffff1660e01b8152600401602060405180830381865afa158015611abd573d6000803e3d6000fd5b505050506040513d601f19601f82011682018060405250810190611ae19190612927565b6060870151611af890670de0b6b3a7640000612b8e565b6040518363ffffffff1660e01b8152600401611b15929190612c14565b6020604051808303816000875af1158015611b34573d6000803e3d6000fd5b505050506040513d601f19601f82011682018060405250810190611b589190612bf2565b506060840151611b7090670de0b6b3a7640000612b8e565b84516001600160a01b031660009081526004602052604081208054909190611b99908490612bdf565b9091555050600161010085015250611ce1565b8261010001518360800151611bc19190612bdf565b611bd390670de0b6b3a7640000612b8e565b60005460e08501519192506001600160a01b03169063a9059cbb90611bf960028561295a565b6040518363ffffffff1660e01b8152600401611c16929190612c14565b6020604051808303816000875af1158015611c35573d6000803e3d6000fd5b505050506040513d601f19601f82011682018060405250810190611c599190612bf2565b506000546001600160a01b031663a9059cbb33611c7760148561295a565b6040518363ffffffff1660e01b8152600401611c94929190612c14565b6020604051808303816000875af1158015611cb3573d6000803e3d6000fd5b505050506040513d601f19601f82011682018060405250810190611cd79190612bf2565b5060006101008401525b600283602001516004811115611cf957611cf9612439565b0361209f578260800151821115611f7c5760008360600151846080015184611d219190612bdf565b611d2b9190612b8e565b611d3d90670de0b6b3a7640000612b8e565b60005460c08601516040516340c10f1960e01b81529293506001600160a01b03909116916340c10f1991611d75918590600401612c14565b600060405180830381600087803b158015611d8f57600080fd5b505af1158015611da3573d6000803e3d6000fd5b505060005460e0870151606088015160808901516001600160a01b0390931694506340c10f1993509091611dd79190612b8e565b611de990670de0b6b3a7640000612b8e565b6040518363ffffffff1660e01b8152600401611e06929190612c14565b600060405180830381600087803b158015611e2057600080fd5b505af1158015611e34573d6000803e3d6000fd5b5050505083600001516001600160a01b031663a9059cbb85600001516001600160a01b031663ae1673356040518163ffffffff1660e01b8152600401602060405180830381865afa158015611e8d573d6000803e3d6000fd5b505050506040513d601f19601f82011682018060405250810190611eb19190612927565b6060870151611ec890670de0b6b3a7640000612b8e565b6040518363ffffffff1660e01b8152600401611ee5929190612c14565b6020604051808303816000875af1158015611f04573d6000803e3d6000fd5b505050506040513d601f19601f82011682018060405250810190611f289190612bf2565b506060840151611f4090670de0b6b3a7640000612b8e565b84516001600160a01b031660009081526004602052604081208054909190611f69908490612bdf565b909155505060016101008501525061209f565b8261010001518360800151611f919190612bdf565b60005460e08501519192506001600160a01b03169063a9059cbb90611fb760028561295a565b6040518363ffffffff1660e01b8152600401611fd4929190612c14565b6020604051808303816000875af1158015611ff3573d6000803e3d6000fd5b505050506040513d601f19601f820116820180604052508101906120179190612bf2565b506000546001600160a01b031663a9059cbb3361203560148561295a565b6040518363ffffffff1660e01b8152600401612052929190612c14565b6020604051808303816000875af1158015612071573d6000803e3d6000fd5b505050506040513d601f19601f820116820180604052508101906120959190612bf2565b5060006101008401525b600060c084018190526040808501829052858252600560209081529120845181546001600160a01b031981166001600160a01b039092169182178355928601518693909183916001600160a81b03191617600160a01b83600481111561210757612107612439565b021790555060408201518160010155606082015181600201556080820151816003015560a082015181600401906002612141929190612329565b5060c08201516006820180546001600160a01b039283166001600160a01b03199182161790915560e08401516007840180549190931691161790556101008201516008820155610120820151600982019061219c9082612c7b565b50506040518581527f9ceb78df2b9170e1bef54abc35dddaeaa8a7a855b3a4f2577410ccb703a43d5f915060200160405180910390a150505050565b60008061222083600001516001600160a01b031663b16a19de6040518163ffffffff1660e01b8152600401602060405180830381865afa15801561037a573d6000803e3d6000fd5b61222f906402540be400612b8e565b90508260600151818460800151670de0b6b3a764000061224f9190612b8e565b6122599190612bdf565b6122639190612b8e565b9150915091565b6040517f19457468657265756d205369676e6564204d6573736167653a0a3332000000006020820152603c8101829052600090605c01604051602081830303815290604052805190602001209050919050565b6040805161014081019091526000808252602082019081526020016000815260200160008152602001600081526020016122f56123a4565b815260200160006001600160a01b0316815260200160006001600160a01b0316815260200160008152602001606081525090565b8260028101928215612357579160200282015b8281111561235757825182559160200191906001019061233c565b506123639291506123c2565b5090565b508054612373906129c9565b6000825580601f10612383575050565b601f0160209004906000526020600020908101906123a191906123c2565b50565b60405180604001604052806002906020820280368337509192915050565b5b8082111561236357600081556001016123c3565b6001600160a01b03811681146123a157600080fd5b80356123f7816123d7565b919050565b60006020828403121561240e57600080fd5b8135612419816123d7565b9392505050565b60006020828403121561243257600080fd5b5035919050565b634e487b7160e01b600052602160045260246000fd5b6005811061246d57634e487b7160e01b600052602160045260246000fd5b9052565b8060005b6002811015612494578151845260209384019390910190600101612475565b50505050565b6000815180845260005b818110156124c0576020818501810151868301820152016124a4565b506000602082860101526020601f19601f83011685010191505092915050565b602081526124fa6020820183516001600160a01b03169052565b6000602083015161250e604084018261244f565b506040830151606083015260608301516080830152608083015160a083015260a083015161253f60c0840182612471565b5060c083015161010061255c818501836001600160a01b03169052565b60e0850151915061012061257a818601846001600160a01b03169052565b9085015161014085015284015161016080850152905061259e61018084018261249a565b949350505050565b600081518084526020808501945080840160005b838110156125df5781516001600160a01b0316875295820195908201906001016125ba565b509495945050505050565b6040815260006125fd60408301856125a6565b82810360208481019190915284518083528582019282019060005b8181101561263457845183529383019391830191600101612618565b5090979650505050505050565b634e487b7160e01b600052604160045260246000fd5b604051610140810167ffffffffffffffff8111828210171561267b5761267b612641565b60405290565b604051601f8201601f1916810167ffffffffffffffff811182821017156126aa576126aa612641565b604052919050565b600082601f8301126126c357600080fd5b813567ffffffffffffffff8111156126dd576126dd612641565b6126f0601f8201601f1916602001612681565b81815284602083860101111561270557600080fd5b816020850160208301376000918101602001919091529392505050565b6000806040838503121561273557600080fd5b82359150602083013567ffffffffffffffff81111561275357600080fd5b61275f858286016126b2565b9150509250929050565b60006020828403121561277b57600080fd5b813567ffffffffffffffff81111561279257600080fd5b61259e848285016126b2565b8035600581106123f757600080fd5b600082601f8301126127be57600080fd5b6040516040810181811067ffffffffffffffff821117156127e1576127e1612641565b80604052508060408401858111156127f857600080fd5b845b818110156128125780358352602092830192016127fa565b509195945050505050565b60006020828403121561282f57600080fd5b813567ffffffffffffffff8082111561284757600080fd5b90830190610160828603121561285c57600080fd5b612864612657565b61286d836123ec565b815261287b6020840161279e565b60208201526040830135604082015260608301356060820152608083013560808201526128ab8660a085016127ad565b60a08201526128bc60e084016123ec565b60c08201526101006128cf8185016123ec565b60e083015261012080850135828401526101408501359150838211156128f457600080fd5b612900888387016126b2565b908301525095945050505050565b60006020828403121561292057600080fd5b5051919050565b60006020828403121561293957600080fd5b8151612419816123d7565b634e487b7160e01b600052601160045260246000fd5b60008261297757634e487b7160e01b600052601260045260246000fd5b500490565b60008060006060848603121561299157600080fd5b835161299c816123d7565b60208501519093506129ad816123d7565b60408501519092506129be816123d7565b809150509250925092565b600181811c908216806129dd57607f821691505b6020821081036129fd57634e487b7160e01b600052602260045260246000fd5b50919050565b634e487b7160e01b600052603260045260246000fd5b600060018201612a2b57612a2b612944565b5060010190565b600067ffffffffffffffff821115612a4c57612a4c612641565b5060051b60200190565b60006020808385031215612a6957600080fd5b825167ffffffffffffffff811115612a8057600080fd5b8301601f81018513612a9157600080fd5b8051612aa4612a9f82612a32565b612681565b81815260059190911b82018301908381019087831115612ac357600080fd5b928401925b82841015612aea578351612adb816123d7565b82529284019290840190612ac8565b979650505050505050565b60208152600061241960208301846125a6565b60006020808385031215612b1b57600080fd5b825167ffffffffffffffff811115612b3257600080fd5b8301601f81018513612b4357600080fd5b8051612b51612a9f82612a32565b81815260059190911b82018301908381019087831115612b7057600080fd5b928401925b82841015612aea57835182529284019290840190612b75565b808202811582820484141761032c5761032c612944565b6001600160801b03818116838216019080821115612bc557612bc5612944565b5092915050565b8082018082111561032c5761032c612944565b8181038181111561032c5761032c612944565b600060208284031215612c0457600080fd5b8151801515811461241957600080fd5b6001600160a01b03929092168252602082015260400190565b601f8211156114e057600081815260208120601f850160051c81016020861015612c545750805b601f850160051c820191505b81811015612c7357828155600101612c60565b505050505050565b815167ffffffffffffffff811115612c9557612c95612641565b612ca981612ca384546129c9565b84612c2d565b602080601f831160018114612cde5760008415612cc65750858301515b600019600386901b1c1916600185901b178555612c73565b600085815260208120601f198616915b82811015612d0d57888601518255948401946001909101908401612cee565b5085821015612d2b5787850151600019600388901b60f8161c191681555b5050505050600190811b0190555056fea264697066735822122042fb627d2833c2ed36fc308ab88e6cd990dd0cd8b64b6b362897fb98d2b601d064736f6c63430008140033","linkReferences":{}},"methodIdentifiers":{"GHO()":"b8d008f3","calculateTakePrice((address,uint8,uint256,uint256,uint256,uint256[2],address,address,uint256,bytes))":"edf51fdd","genesis()":"a7f0b3de","getATokenAddressFor(address)":"15f14824","getAllAaveAssetPrices()":"78f34416","getAllAssetsPrices()":"a935310f","getEthSignedMessageHash(bytes32)":"fa540801","getPosition(bytes32)":"1928b3cb","getPriceOfAaveAsset(address)":"0f0a4ab1","getPriceOfAsset(address)":"0b13a88d","liquidatePosition(bytes32)":"eaf7762c","profitTake(address)":"ea2b5b43","recoverSigner(bytes32,bytes)":"97aba7f9","splitSignature(bytes)":"a7bb5803","takePosition((address,uint8,uint256,uint256,uint256,uint256[2],address,address,uint256,bytes))":"d286cc52","updateBucketCapacity()":"c4e8e0de","verifyLPsig((address,uint8,uint256,uint256,uint256,uint256[2],address,address,uint256,bytes))":"e64a8fc8"},"id":48}