{"abi":[{"type":"constructor","inputs":[{"name":"denominator","type":"address","internalType":"address"}],"stateMutability":"nonpayable"},{"type":"function","name":"GHO","inputs":[],"outputs":[{"name":"","type":"address","internalType":"contract IGhoToken"}],"stateMutability":"view"},{"type":"function","name":"calculateTakePrice","inputs":[{"name":"P","type":"tuple","internalType":"struct Position","components":[{"name":"asset","type":"address","internalType":"address"},{"name":"state","type":"uint8","internalType":"enum State"},{"name":"expriresAt","type":"uint256","internalType":"uint256"},{"name":"amount","type":"uint256","internalType":"uint256"},{"name":"wantedPrice","type":"uint256","internalType":"uint256"},{"name":"durationBalance","type":"uint256[2]","internalType":"uint256[2]"},{"name":"taker","type":"address","internalType":"address"},{"name":"lper","type":"address","internalType":"address"},{"name":"executionPrice","type":"uint256","internalType":"uint256"},{"name":"LPsig","type":"bytes","internalType":"bytes"}]}],"outputs":[{"name":"cost","type":"uint256","internalType":"uint256"},{"name":"executionPrice","type":"uint256","internalType":"uint256"}],"stateMutability":"view"},{"type":"function","name":"genesis","inputs":[],"outputs":[{"name":"","type":"address","internalType":"address"}],"stateMutability":"view"},{"type":"function","name":"getATokenAddressFor","inputs":[{"name":"assetAddress","type":"address","internalType":"address"}],"outputs":[{"name":"aToken","type":"address","internalType":"address"}],"stateMutability":"view"},{"type":"function","name":"getAllAaveAssetPrices","inputs":[],"outputs":[{"name":"assets","type":"address[]","internalType":"address[]"},{"name":"prices","type":"uint256[]","internalType":"uint256[]"}],"stateMutability":"view"},{"type":"function","name":"getAllAssetsPrices","inputs":[],"outputs":[{"name":"assets","type":"address[]","internalType":"address[]"},{"name":"prices","type":"uint256[]","internalType":"uint256[]"}],"stateMutability":"view"},{"type":"function","name":"getAllForUser","inputs":[{"name":"userAddress","type":"address","internalType":"address"}],"outputs":[{"name":"assets","type":"address[]","internalType":"address[]"},{"name":"prices","type":"uint256[]","internalType":"uint256[]"},{"name":"userPositions","type":"tuple[]","internalType":"struct Position[]","components":[{"name":"asset","type":"address","internalType":"address"},{"name":"state","type":"uint8","internalType":"enum State"},{"name":"expriresAt","type":"uint256","internalType":"uint256"},{"name":"amount","type":"uint256","internalType":"uint256"},{"name":"wantedPrice","type":"uint256","internalType":"uint256"},{"name":"durationBalance","type":"uint256[2]","internalType":"uint256[2]"},{"name":"taker","type":"address","internalType":"address"},{"name":"lper","type":"address","internalType":"address"},{"name":"executionPrice","type":"uint256","internalType":"uint256"},{"name":"LPsig","type":"bytes","internalType":"bytes"}]}],"stateMutability":"view"},{"type":"function","name":"getEthSignedMessageHash","inputs":[{"name":"_messageHash","type":"bytes32","internalType":"bytes32"}],"outputs":[{"name":"","type":"bytes32","internalType":"bytes32"}],"stateMutability":"pure"},{"type":"function","name":"getPosition","inputs":[{"name":"hashOf","type":"bytes32","internalType":"bytes32"}],"outputs":[{"name":"","type":"tuple","internalType":"struct Position","components":[{"name":"asset","type":"address","internalType":"address"},{"name":"state","type":"uint8","internalType":"enum State"},{"name":"expriresAt","type":"uint256","internalType":"uint256"},{"name":"amount","type":"uint256","internalType":"uint256"},{"name":"wantedPrice","type":"uint256","internalType":"uint256"},{"name":"durationBalance","type":"uint256[2]","internalType":"uint256[2]"},{"name":"taker","type":"address","internalType":"address"},{"name":"lper","type":"address","internalType":"address"},{"name":"executionPrice","type":"uint256","internalType":"uint256"},{"name":"LPsig","type":"bytes","internalType":"bytes"}]}],"stateMutability":"view"},{"type":"function","name":"getPriceOfAaveAsset","inputs":[{"name":"aTokenAddress","type":"address","internalType":"address"}],"outputs":[{"name":"","type":"uint256","internalType":"uint256"}],"stateMutability":"view"},{"type":"function","name":"getPriceOfAsset","inputs":[{"name":"Asset","type":"address","internalType":"address"}],"outputs":[{"name":"","type":"uint256","internalType":"uint256"}],"stateMutability":"view"},{"type":"function","name":"liquidatePosition","inputs":[{"name":"positionHash","type":"bytes32","internalType":"bytes32"}],"outputs":[],"stateMutability":"nonpayable"},{"type":"function","name":"profitTake","inputs":[{"name":"Aasset_","type":"address","internalType":"address"}],"outputs":[],"stateMutability":"nonpayable"},{"type":"function","name":"recoverSigner","inputs":[{"name":"_ethSignedMessageHash","type":"bytes32","internalType":"bytes32"},{"name":"_signature","type":"bytes","internalType":"bytes"}],"outputs":[{"name":"","type":"address","internalType":"address"}],"stateMutability":"pure"},{"type":"function","name":"splitSignature","inputs":[{"name":"sig","type":"bytes","internalType":"bytes"}],"outputs":[{"name":"r","type":"bytes32","internalType":"bytes32"},{"name":"s","type":"bytes32","internalType":"bytes32"},{"name":"v","type":"uint8","internalType":"uint8"}],"stateMutability":"pure"},{"type":"function","name":"takePosition","inputs":[{"name":"P","type":"tuple","internalType":"struct Position","components":[{"name":"asset","type":"address","internalType":"address"},{"name":"state","type":"uint8","internalType":"enum State"},{"name":"expriresAt","type":"uint256","internalType":"uint256"},{"name":"amount","type":"uint256","internalType":"uint256"},{"name":"wantedPrice","type":"uint256","internalType":"uint256"},{"name":"durationBalance","type":"uint256[2]","internalType":"uint256[2]"},{"name":"taker","type":"address","internalType":"address"},{"name":"lper","type":"address","internalType":"address"},{"name":"executionPrice","type":"uint256","internalType":"uint256"},{"name":"LPsig","type":"bytes","internalType":"bytes"}]}],"outputs":[{"name":"","type":"bytes32","internalType":"bytes32"}],"stateMutability":"nonpayable"},{"type":"function","name":"updateBucketCapacity","inputs":[],"outputs":[],"stateMutability":"nonpayable"},{"type":"function","name":"verifyLPsig","inputs":[{"name":"P","type":"tuple","internalType":"struct Position","components":[{"name":"asset","type":"address","internalType":"address"},{"name":"state","type":"uint8","internalType":"enum State"},{"name":"expriresAt","type":"uint256","internalType":"uint256"},{"name":"amount","type":"uint256","internalType":"uint256"},{"name":"wantedPrice","type":"uint256","internalType":"uint256"},{"name":"durationBalance","type":"uint256[2]","internalType":"uint256[2]"},{"name":"taker","type":"address","internalType":"address"},{"name":"lper","type":"address","internalType":"address"},{"name":"executionPrice","type":"uint256","internalType":"uint256"},{"name":"LPsig","type":"bytes","internalType":"bytes"}]}],"outputs":[{"name":"s","type":"bool","internalType":"bool"}],"stateMutability":"pure"},{"type":"event","name":"NewPosition","inputs":[{"name":"positionHash","type":"bytes32","indexed":false,"internalType":"bytes32"}],"anonymous":false},{"type":"event","name":"PositionLiquid","inputs":[{"name":"positionHash","type":"bytes32","indexed":false,"internalType":"bytes32"}],"anonymous":false},{"type":"error","name":"AZero","inputs":[]},{"type":"error","name":"AaveRug","inputs":[]},{"type":"error","name":"AlreadyTaken","inputs":[]},{"type":"error","name":"BadSigP","inputs":[]},{"type":"error","name":"Illegal","inputs":[]},{"type":"error","name":"InsufficientDuration","inputs":[]},{"type":"error","name":"InvalidExecutionPrice","inputs":[]},{"type":"error","name":"MinOneDay","inputs":[]},{"type":"error","name":"NotADex","inputs":[]},{"type":"error","name":"NotTaker","inputs":[]},{"type":"error","name":"OnlyTakerOrExpired","inputs":[]},{"type":"error","name":"ResidualPermit","inputs":[]},{"type":"error","name":"TransferFaileure","inputs":[]},{"type":"error","name":"Untaken","inputs":[]}],"bytecode":{"object":"0x6080604052600180546001600160a01b0319167354586be62e3c3580375ae3723c145253060ca0c21790553480156200003757600080fd5b5060405162003500380380620035008339810160408190526200005a9162000334565b600080546001600160a01b0383166001600160a01b0319918216179091556002805490911633179055806200008e62000096565b5050620005d5565b3060009081526003602052604090205460ff1615620000b457600080fd5b600080620000c162000182565b9150915060005b81518110156200016357630b2f60b1828281518110620000ec57620000ec62000359565b602002602001015111156200014e5760006200012a84838151811062000116576200011662000359565b60200260200101516200028c60201b60201c565b6001600160a01b03166000908152600360205260409020805460ff19166001179055505b806200015a816200036f565b915050620000c8565b5050306000908152600360205260409020805460ff1916600117905550565b6060807387870bca3f3fd6335c3f4ce8392d69350b4fa4e26001600160a01b031663d1946dbc6040518163ffffffff1660e01b8152600401600060405180830381865afa158015620001d8573d6000803e3d6000fd5b505050506040513d6000823e601f3d908101601f1916820160405262000202919081019062000406565b604051634e91ecf960e11b81529092507354586be62e3c3580375ae3723c145253060ca0c290639d23d9f2906200023e908590600401620004ae565b600060405180830381865afa1580156200025c573d6000803e3d6000fd5b505050506040513d6000823e601f3d908101601f19168201604052620002869190810190620004fd565b90509091565b6040516334924edb60e21b81526001600160a01b0382166004820152600090737b4eb56e7cd4b454ba8ff71e4518426369a138a39063d2493b6c90602401606060405180830381865afa158015620002e8573d6000803e3d6000fd5b505050506040513d601f19601f820116820180604052508101906200030e91906200058b565b50909392505050565b80516001600160a01b03811681146200032f57600080fd5b919050565b6000602082840312156200034757600080fd5b620003528262000317565b9392505050565b634e487b7160e01b600052603260045260246000fd5b6000600182016200039057634e487b7160e01b600052601160045260246000fd5b5060010190565b634e487b7160e01b600052604160045260246000fd5b604051601f8201601f191681016001600160401b0381118282101715620003d857620003d862000397565b604052919050565b60006001600160401b03821115620003fc57620003fc62000397565b5060051b60200190565b600060208083850312156200041a57600080fd5b82516001600160401b038111156200043157600080fd5b8301601f810185136200044357600080fd5b80516200045a6200045482620003e0565b620003ad565b81815260059190911b820183019083810190878311156200047a57600080fd5b928401925b82841015620004a357620004938462000317565b825292840192908401906200047f565b979650505050505050565b6020808252825182820181905260009190848201906040850190845b81811015620004f15783516001600160a01b031683529284019291840191600101620004ca565b50909695505050505050565b600060208083850312156200051157600080fd5b82516001600160401b038111156200052857600080fd5b8301601f810185136200053a57600080fd5b80516200054b6200045482620003e0565b81815260059190911b820183019083810190878311156200056b57600080fd5b928401925b82841015620004a35783518252928401929084019062000570565b600080600060608486031215620005a157600080fd5b620005ac8462000317565b9250620005bc6020850162000317565b9150620005cc6040850162000317565b90509250925092565b612f1b80620005e56000396000f3fe608060405234801561001057600080fd5b50600436106101165760003560e01c8063b8d008f3116100a2578063e64a8fc811610071578063e64a8fc814610266578063ea2b5b4314610289578063eaf7762c1461029c578063edf51fdd146102af578063fa540801146102d757600080fd5b8063b8d008f314610214578063c4e8e0de14610227578063d286cc5214610231578063e10e93b91461024457600080fd5b806378f34416116100e957806378f344161461019f57806397aba7f9146101b5578063a7bb5803146101c8578063a7f0b3de146101f9578063a935310f1461020c57600080fd5b80630b13a88d1461011b5780630f0a4ab11461014157806315f14824146101545780631928b3cb1461017f575b600080fd5b61012e610129366004612516565b6102ea565b6040519081526020015b60405180910390f35b61012e61014f366004612516565b61035f565b610167610162366004612516565b6103d5565b6040516001600160a01b039091168152602001610138565b61019261018d36600461253a565b61045d565b60405161013891906126b0565b6101a76105ee565b604051610138929190612737565b6101676101c336600461283d565b61066d565b6101db6101d6366004612884565b6106ec565b60408051938452602084019290925260ff1690820152606001610138565b600254610167906001600160a01b031681565b6101a7610764565b600054610167906001600160a01b031681565b61022f610866565b005b61012e61023f366004612940565b610a61565b610257610252366004612516565b61117d565b60405161013893929190612a31565b610279610274366004612940565b6113e1565b6040519015158152602001610138565b61022f610297366004612516565b611484565b61022f6102aa36600461253a565b61178d565b6102c26102bd366004612940565b6122f2565b60408051928352602083019190915201610138565b61012e6102e536600461253a565b612384565b60015460405163b3596f0760e01b81526001600160a01b038381166004830152600092169063b3596f0790602401602060405180830381865afa158015610335573d6000803e3d6000fd5b505050506040513d601f19601f820116820180604052508101906103599190612ab8565b92915050565b60006305f5e1006103cb836001600160a01b031663b16a19de6040518163ffffffff1660e01b8152600401602060405180830381865afa1580156103a7573d6000803e3d6000fd5b505050506040513d601f19601f820116820180604052508101906101299190612ad1565b6103599190612b04565b6040516334924edb60e21b81526001600160a01b0382166004820152600090737b4eb56e7cd4b454ba8ff71e4518426369a138a39063d2493b6c90602401606060405180830381865afa158015610430573d6000803e3d6000fd5b505050506040513d601f19601f820116820180604052508101906104549190612b26565b50909392505050565b6104656123d7565b6000828152600660209081526040918290208251610140810190935280546001600160a01b03811684529091830190600160a01b900460ff1660048111156104af576104af612553565b60048111156104c0576104c0612553565b81526020016001820154815260200160028201548152602001600382015481526020016004820160028060200260405190810160405280929190826002801561051e576020028201915b81548152602001906001019080831161050a575b505050918352505060068201546001600160a01b03908116602083015260078301541660408201526008820154606082015260098201805460809092019161056590612b73565b80601f016020809104026020016040519081016040528092919081815260200182805461059190612b73565b80156105de5780601f106105b3576101008083540402835291602001916105de565b820191906000526020600020905b8154815290600101906020018083116105c157829003601f168201915b5050505050815250509050919050565b6060806105f9610764565b909250905060005b82518110156106685761062c83828151811061061f5761061f612bad565b60200260200101516103d5565b83828151811061063e5761063e612bad565b6001600160a01b03909216602092830291909101909101528061066081612bc3565b915050610601565b509091565b60008060008061067c856106ec565b6040805160008152602081018083528b905260ff8316918101919091526060810184905260808101839052929550909350915060019060a0016020604051602081039080840390855afa1580156106d7573d6000803e3d6000fd5b5050604051601f190151979650505050505050565b600080600083516041146107465760405162461bcd60e51b815260206004820152601860248201527f696e76616c6964207369676e6174757265206c656e6774680000000000000000604482015260640160405180910390fd5b50505060208101516040820151606090920151909260009190911a90565b6060807387870bca3f3fd6335c3f4ce8392d69350b4fa4e26001600160a01b031663d1946dbc6040518163ffffffff1660e01b8152600401600060405180830381865afa1580156107b9573d6000803e3d6000fd5b505050506040513d6000823e601f3d908101601f191682016040526107e19190810190612c00565b604051634e91ecf960e11b81529092507354586be62e3c3580375ae3723c145253060ca0c290639d23d9f29061081b908590600401612c9f565b600060405180830381865afa158015610838573d6000803e3d6000fd5b505050506040513d6000823e601f3d908101601f191682016040526108609190810190612cb2565b90509091565b600080610871610764565b90925090506000805b83518110156109ef5761089884828151811061061f5761061f612bad565b8482815181106108aa576108aa612bad565b60200260200101906001600160a01b031690816001600160a01b031681525050600360008583815181106108e0576108e0612bad565b6020908102919091018101516001600160a01b031682528101919091526040016000205460ff16156109dd57600084828151811061092057610920612bad565b60209081029190910101516040516370a0823160e01b81523060048201526001600160a01b03909116906370a0823190602401602060405180830381865afa158015610970573d6000803e3d6000fd5b505050506040513d601f19601f820116820180604052508101906109949190612ab8565b90506000816305f5e1008685815181106109b0576109b0612bad565b60200260200101516109c29190612b04565b6109cc9190612d38565b90506109d88185612d4f565b935050505b806109e781612bc3565b91505061087a565b5060005460405163af93df5760e01b81523060048201526001600160801b03831660248201526001600160a01b039091169063af93df5790604401600060405180830381600087803b158015610a4457600080fd5b505af1158015610a58573d6000803e3d6000fd5b50505050505050565b80516001600160a01b031660009081526003602052604081205460ff16610a9b5760405163c9c4bbdf60e01b815260040160405180910390fd5b600182602001516004811115610ab357610ab3612553565b60ff1611610ad45760405163239aa90f60e11b815260040160405180910390fd5b81606001518260800151836101000151610aee9190612d38565b610af89190612d38565b600003610b18576040516301cf70f360e41b815260040160405180910390fd5b816080015182610100015110610b41576040516311d4fd3f60e21b815260040160405180910390fd5b600080610b4d846122f2565b9092509050610b64670de0b6b3a764000082612b04565b84610100015114610b88576040516304ac495360e21b815260040160405180910390fd5b6000610b974262015180612d76565b85604001511015610ba9576000610bb9565b428560400151610bb99190612d89565b905080600003610bdc5760405163da7518ef60e01b815260040160405180910390fd5b60a085015151811115610c02576040516363c0bec760e01b815260040160405180910390fd5b60c08501516001600160a01b03163314610c2f57604051635211a07960e01b815260040160405180910390fd5b3360c08601526060850151600090610c4f90670de0b6b3a7640000612d38565b6000549091506001600160a01b03166323b872dd336040516001600160e01b031960e084901b1681526001600160a01b039091166004820152306024820152604481018790526064016020604051808303816000875af1158015610cb7573d6000803e3d6000fd5b505050506040513d601f19601f82011682018060405250810190610cdb9190612d9c565b8015610d625750855160e08701516040516323b872dd60e01b81526001600160a01b039182166004820152306024820152604481018490529116906323b872dd906064016020604051808303816000875af1158015610d3e573d6000803e3d6000fd5b505050506040513d601f19601f82011682018060405250810190610d629190612d9c565b610d7f57604051634ebafae360e11b815260040160405180910390fd5b85516001600160a01b031660009081526004602052604081208054839290610da8908490612d76565b909155506003905086602001516004811115610dc657610dc6612553565b03610f3b57600080546040516370a0823160e01b81523060048201526001600160a01b03909116906370a0823190602401602060405180830381865afa158015610e14573d6000803e3d6000fd5b505050506040513d601f19601f82011682018060405250810190610e389190612ab8565b60005460608901519192506001600160a01b0316906340c10f19903090610e5f9088612d38565b6040518363ffffffff1660e01b8152600401610e7c929190612dbe565b600060405180830381600087803b158015610e9657600080fd5b505af1158015610eaa573d6000803e3d6000fd5b50506000546040516370a0823160e01b81523060048201526001600160a01b0390911692506370a082319150602401602060405180830381865afa158015610ef6573d6000803e3d6000fd5b505050506040513d601f19601f82011682018060405250810190610f1a9190612ab8565b8110610f395760405163dd27098360e01b815260040160405180910390fd5b505b60a08601516020015115610f625760a086015160200151610f5d908390612d89565b610f73565b60a086015151610f73908390612d89565b60a0870151602090810191909152604051600091610f93918991016126b0565b6040516020818303038152906040528051906020012090506001600660008381526020019081526020016000206008015410610fe257604051630c0e5cf760e21b815260040160405180910390fd5b60e08701516001600160a01b0390811660009081526005602090815260408083208054600181810183559185528385200186905560c08c01518516845281842080549182018155845282842001859055848352600682529091208951815493166001600160a01b0319841681178255918a01518a939192909183916001600160a81b031990911617600160a01b83600481111561108157611081612553565b021790555060408201518160010155606082015181600201556080820151816003015560a0820151816004019060026110bb929190612443565b5060c08201516006820180546001600160a01b039283166001600160a01b03199182161790915560e0840151600784018054919093169116179055610100820151600882015561012082015160098201906111169082612e25565b50905050611123876113e1565b61114057604051630776f20b60e51b815260040160405180910390fd5b6040518181527fb5d1e17d6ac79bd35ea3fc367695ca5d7d85fa261d65aeeeac772010da685e5c9060200160405180910390a19695505050505050565b606080606061118a6105ee565b6001600160a01b038616600090815260056020908152604080832080548251818502810185019093528083529598509396509193919291908301828280156111f157602002820191906000526020600020905b8154815260200190600101908083116111dd575b5050505050905060005b81518110156113d8576006600083838151811061121a5761121a612bad565b60209081029190910181015182528181019290925260409081016000208151610140810190925280546001600160a01b03811683529192909190830190600160a01b900460ff16600481111561127257611272612553565b600481111561128357611283612553565b8152602001600182015481526020016002820154815260200160038201548152602001600482016002806020026040519081016040528092919082600280156112e1576020028201915b8154815260200190600101908083116112cd575b505050918352505060068201546001600160a01b03908116602083015260078301541660408201526008820154606082015260098201805460809092019161132890612b73565b80601f016020809104026020016040519081016040528092919081815260200182805461135490612b73565b80156113a15780601f10611376576101008083540402835291602001916113a1565b820191906000526020600020905b81548152906001019060200180831161138457829003601f168201915b5050505050815250508382815181106113bc576113bc612bad565b6020026020010181905250806113d190612bc3565b90506111fb565b50509193909250565b610120810180516000610100840181905260408401819052606090925260c0830182905282906001602083018190525060a082015160006020918201819052604051909161145091611435918691016126b0565b60405160208183030381529060405280519060200120612384565b9050600061145e828461066d565b90508560e001516001600160a01b0316816001600160a01b031614945050505050919050565b6040516370a0823160e01b81523060048201526000906065906001600160a01b038416906370a0823190602401602060405180830381865afa1580156114ce573d6000803e3d6000fd5b505050506040513d601f19601f820116820180604052508101906114f29190612ab8565b6114fc9190612b04565b6002546001600160a01b038085166000818152600460205260409020549394509263a9059cbb9290911690611532856045612d38565b61153c9190612d89565b6040518363ffffffff1660e01b8152600401611559929190612dbe565b6020604051808303816000875af1158015611578573d6000803e3d6000fd5b505050506040513d601f19601f8201168201806040525081019061159c9190612d9c565b506002546001600160a01b03808416600081815260046020526040902054909263a9059cbb9216906115ce9085612d89565b6040518363ffffffff1660e01b81526004016115eb929190612dbe565b6020604051808303816000875af115801561160a573d6000803e3d6000fd5b505050506040513d601f19601f8201168201806040525081019061162e9190612d9c565b50816001600160a01b031663a9059cbb836001600160a01b031663ae1673356040518163ffffffff1660e01b8152600401602060405180830381865afa15801561167c573d6000803e3d6000fd5b505050506040513d601f19601f820116820180604052508101906116a09190612ad1565b6001600160a01b0385166000818152600460208190526040918290205491516370a0823160e01b815230918101919091529091906370a0823190602401602060405180830381865afa1580156116fa573d6000803e3d6000fd5b505050506040513d601f19601f8201168201806040525081019061171e9190612ab8565b6117289190612d89565b6040518363ffffffff1660e01b8152600401611745929190612dbe565b6020604051808303816000875af1158015611764573d6000803e3d6000fd5b505050506040513d601f19601f820116820180604052508101906117889190612d9c565b505050565b60008181526006602090815260408083208151610140810190925280546001600160a01b03811683529192909190830190600160a01b900460ff1660048111156117d9576117d9612553565b60048111156117ea576117ea612553565b815260200160018201548152602001600282015481526020016003820154815260200160048201600280602002604051908101604052809291908260028015611848576020028201915b815481526020019060010190808311611834575b505050918352505060068201546001600160a01b03908116602083015260078301541660408201526008820154606082015260098201805460809092019161188f90612b73565b80601f01602080910402602001604051908101604052809291908181526020018280546118bb90612b73565b80156119085780601f106118dd57610100808354040283529160200191611908565b820191906000526020600020905b8154815290600101906020018083116118eb57829003601f168201915b5050505050815250509050806101000151600114801561193d575060e08101516001600160a01b0316336001600160a01b0316145b15611b0157600082815260066020526040812080546001600160a81b03191681556001810182905560028101829055600381018290556004810182905560058101829055906006820180546001600160a01b031990811690915560078301805490911690556000600883018190556119b9906009840190612481565b505080516001600160a01b031663a9059cbb3360608401516119e390670de0b6b3a7640000612d38565b6040518363ffffffff1660e01b8152600401611a00929190612dbe565b6020604051808303816000875af1158015611a1f573d6000803e3d6000fd5b505050506040513d601f19601f82011682018060405250810190611a439190612d9c565b611a6057604051634ebafae360e11b815260040160405180910390fd5b80516001906001600160a01b031663dd62ed3e336040516001600160e01b031960e084901b1681526001600160a01b039091166004820152306024820152604401602060405180830381865afa158015611abe573d6000803e3d6000fd5b505050506040513d601f19601f82011682018060405250810190611ae29190612ab8565b1115611b015760405163f655d08f60e01b815260040160405180910390fd5b4281604001511180611b29575060c08101516001600160a01b0316336001600160a01b031614155b15611b4757604051638d0cd61b60e01b815260040160405180910390fd5b60006305f5e100611b9383600001516001600160a01b031663b16a19de6040518163ffffffff1660e01b8152600401602060405180830381865afa1580156103a7573d6000803e3d6000fd5b611b9d9190612b04565b90506000600383602001516004811115611bb957611bb9612553565b03611f3057826101000151821015611dfb576000836060015183856101000151611be39190612d89565b611bed9190612d38565b611bff90670de0b6b3a7640000612d38565b60005460c08601516040516340c10f1960e01b81529293506001600160a01b03909116916340c10f1991611c37918590600401612dbe565b600060405180830381600087803b158015611c5157600080fd5b505af1158015611c65573d6000803e3d6000fd5b505060005460e087015160808801516001600160a01b03909216935063a9059cbb925090611c9b90670de0b6b3a7640000612d38565b6040518363ffffffff1660e01b8152600401611cb8929190612dbe565b6020604051808303816000875af1158015611cd7573d6000803e3d6000fd5b505050506040513d601f19601f82011682018060405250810190611cfb9190612d9c565b5083600001516001600160a01b031663a9059cbb85600001516001600160a01b031663ae1673356040518163ffffffff1660e01b8152600401602060405180830381865afa158015611d51573d6000803e3d6000fd5b505050506040513d601f19601f82011682018060405250810190611d759190612ad1565b6060870151611d8c90670de0b6b3a7640000612d38565b6040518363ffffffff1660e01b8152600401611da9929190612dbe565b6020604051808303816000875af1158015611dc8573d6000803e3d6000fd5b505050506040513d601f19601f82011682018060405250810190611dec9190612d9c565b50506001610100840152611f30565b8261010001518360800151611e109190612d89565b611e2290670de0b6b3a7640000612d38565b60005460e08501519192506001600160a01b03169063a9059cbb90611e48600285612b04565b6040518363ffffffff1660e01b8152600401611e65929190612dbe565b6020604051808303816000875af1158015611e84573d6000803e3d6000fd5b505050506040513d601f19601f82011682018060405250810190611ea89190612d9c565b506000546001600160a01b031663a9059cbb33611ec6601485612b04565b6040518363ffffffff1660e01b8152600401611ee3929190612dbe565b6020604051808303816000875af1158015611f02573d6000803e3d6000fd5b505050506040513d601f19601f82011682018060405250810190611f269190612d9c565b5060006101008401525b600283602001516004811115611f4857611f48612553565b036121b95782608001518211156120965760008360600151846080015184611f709190612d89565b611f7a9190612d38565b611f8c90670de0b6b3a7640000612d38565b60005460c08601516040516340c10f1960e01b81529293506001600160a01b03909116916340c10f1991611fc4918590600401612dbe565b600060405180830381600087803b158015611fde57600080fd5b505af1158015611ff2573d6000803e3d6000fd5b505060005460e0870151606088015160808901516001600160a01b0390931694506340c10f19935090916120269190612d38565b61203890670de0b6b3a7640000612d38565b6040518363ffffffff1660e01b8152600401612055929190612dbe565b600060405180830381600087803b15801561206f57600080fd5b505af1158015612083573d6000803e3d6000fd5b50506001610100870152506121b9915050565b82610100015183608001516120ab9190612d89565b60005460e08501519192506001600160a01b03169063a9059cbb906120d1600285612b04565b6040518363ffffffff1660e01b81526004016120ee929190612dbe565b6020604051808303816000875af115801561210d573d6000803e3d6000fd5b505050506040513d601f19601f820116820180604052508101906121319190612d9c565b506000546001600160a01b031663a9059cbb3361214f601485612b04565b6040518363ffffffff1660e01b815260040161216c929190612dbe565b6020604051808303816000875af115801561218b573d6000803e3d6000fd5b505050506040513d601f19601f820116820180604052508101906121af9190612d9c565b5060006101008401525b600060c084018190526040808501829052858252600660209081529120845181546001600160a01b031981166001600160a01b039092169182178355928601518693909183916001600160a81b03191617600160a01b83600481111561222157612221612553565b021790555060408201518160010155606082015181600201556080820151816003015560a08201518160040190600261225b929190612443565b5060c08201516006820180546001600160a01b039283166001600160a01b03199182161790915560e0840151600784018054919093169116179055610100820151600882015561012082015160098201906122b69082612e25565b50506040518581527f9ceb78df2b9170e1bef54abc35dddaeaa8a7a855b3a4f2577410ccb703a43d5f915060200160405180910390a150505050565b60008061233a83600001516001600160a01b031663b16a19de6040518163ffffffff1660e01b8152600401602060405180830381865afa1580156103a7573d6000803e3d6000fd5b612349906402540be400612d38565b90508260600151818460800151670de0b6b3a76400006123699190612d38565b6123739190612d89565b61237d9190612d38565b9150915091565b6040517f19457468657265756d205369676e6564204d6573736167653a0a3332000000006020820152603c8101829052600090605c01604051602081830303815290604052805190602001209050919050565b60408051610140810190915260008082526020820190815260200160008152602001600081526020016000815260200161240f6124be565b815260200160006001600160a01b0316815260200160006001600160a01b0316815260200160008152602001606081525090565b8260028101928215612471579160200282015b82811115612471578251825591602001919060010190612456565b5061247d9291506124dc565b5090565b50805461248d90612b73565b6000825580601f1061249d575050565b601f0160209004906000526020600020908101906124bb91906124dc565b50565b60405180604001604052806002906020820280368337509192915050565b5b8082111561247d57600081556001016124dd565b6001600160a01b03811681146124bb57600080fd5b8035612511816124f1565b919050565b60006020828403121561252857600080fd5b8135612533816124f1565b9392505050565b60006020828403121561254c57600080fd5b5035919050565b634e487b7160e01b600052602160045260246000fd5b6005811061258757634e487b7160e01b600052602160045260246000fd5b9052565b8060005b60028110156125ae57815184526020938401939091019060010161258f565b50505050565b6000815180845260005b818110156125da576020818501810151868301820152016125be565b506000602082860101526020601f19601f83011685010191505092915050565b80516001600160a01b031682526000610160602083015161261e6020860182612569565b5060408301516040850152606083015160608501526080830151608085015260a083015161264f60a086018261258b565b5060c08301516001600160a01b03811660e08601525060e0830151610100612681818701836001600160a01b03169052565b84015161012086810191909152840151610140860183905290506126a7828601826125b4565b95945050505050565b60208152600061253360208301846125fa565b600081518084526020808501945080840160005b838110156126fc5781516001600160a01b0316875295820195908201906001016126d7565b509495945050505050565b600081518084526020808501945080840160005b838110156126fc5781518752958201959082019060010161271b565b60408152600061274a60408301856126c3565b82810360208401526126a78185612707565b634e487b7160e01b600052604160045260246000fd5b604051610140810167ffffffffffffffff811182821017156127965761279661275c565b60405290565b604051601f8201601f1916810167ffffffffffffffff811182821017156127c5576127c561275c565b604052919050565b600082601f8301126127de57600080fd5b813567ffffffffffffffff8111156127f8576127f861275c565b61280b601f8201601f191660200161279c565b81815284602083860101111561282057600080fd5b816020850160208301376000918101602001919091529392505050565b6000806040838503121561285057600080fd5b82359150602083013567ffffffffffffffff81111561286e57600080fd5b61287a858286016127cd565b9150509250929050565b60006020828403121561289657600080fd5b813567ffffffffffffffff8111156128ad57600080fd5b6128b9848285016127cd565b949350505050565b80356005811061251157600080fd5b600082601f8301126128e157600080fd5b6040516040810181811067ffffffffffffffff821117156129045761290461275c565b806040525080604084018581111561291b57600080fd5b845b8181101561293557803583526020928301920161291d565b509195945050505050565b60006020828403121561295257600080fd5b813567ffffffffffffffff8082111561296a57600080fd5b90830190610160828603121561297f57600080fd5b612987612772565b61299083612506565b815261299e602084016128c1565b60208201526040830135604082015260608301356060820152608083013560808201526129ce8660a085016128d0565b60a08201526129df60e08401612506565b60c08201526101006129f2818501612506565b60e08301526101208085013582840152610140850135915083821115612a1757600080fd5b612a23888387016127cd565b908301525095945050505050565b606081526000612a4460608301866126c3565b602083820381850152612a578287612707565b915083820360408501528185518084528284019150828160051b85010183880160005b83811015612aa857601f19878403018552612a968383516125fa565b94860194925090850190600101612a7a565b50909a9950505050505050505050565b600060208284031215612aca57600080fd5b5051919050565b600060208284031215612ae357600080fd5b8151612533816124f1565b634e487b7160e01b600052601160045260246000fd5b600082612b2157634e487b7160e01b600052601260045260246000fd5b500490565b600080600060608486031215612b3b57600080fd5b8351612b46816124f1565b6020850151909350612b57816124f1565b6040850151909250612b68816124f1565b809150509250925092565b600181811c90821680612b8757607f821691505b602082108103612ba757634e487b7160e01b600052602260045260246000fd5b50919050565b634e487b7160e01b600052603260045260246000fd5b600060018201612bd557612bd5612aee565b5060010190565b600067ffffffffffffffff821115612bf657612bf661275c565b5060051b60200190565b60006020808385031215612c1357600080fd5b825167ffffffffffffffff811115612c2a57600080fd5b8301601f81018513612c3b57600080fd5b8051612c4e612c4982612bdc565b61279c565b81815260059190911b82018301908381019087831115612c6d57600080fd5b928401925b82841015612c94578351612c85816124f1565b82529284019290840190612c72565b979650505050505050565b60208152600061253360208301846126c3565b60006020808385031215612cc557600080fd5b825167ffffffffffffffff811115612cdc57600080fd5b8301601f81018513612ced57600080fd5b8051612cfb612c4982612bdc565b81815260059190911b82018301908381019087831115612d1a57600080fd5b928401925b82841015612c9457835182529284019290840190612d1f565b808202811582820484141761035957610359612aee565b6001600160801b03818116838216019080821115612d6f57612d6f612aee565b5092915050565b8082018082111561035957610359612aee565b8181038181111561035957610359612aee565b600060208284031215612dae57600080fd5b8151801515811461253357600080fd5b6001600160a01b03929092168252602082015260400190565b601f82111561178857600081815260208120601f850160051c81016020861015612dfe5750805b601f850160051c820191505b81811015612e1d57828155600101612e0a565b505050505050565b815167ffffffffffffffff811115612e3f57612e3f61275c565b612e5381612e4d8454612b73565b84612dd7565b602080601f831160018114612e885760008415612e705750858301515b600019600386901b1c1916600185901b178555612e1d565b600085815260208120601f198616915b82811015612eb757888601518255948401946001909101908401612e98565b5085821015612ed55787850151600019600388901b60f8161c191681555b5050505050600190811b0190555056fea26469706673582212206d6b32504c4a41853a79eec9cd58a6ff4567a137875b0821c368d6fda43e248964736f6c63430008140033","linkReferences":{}},"methodIdentifiers":{"GHO()":"b8d008f3","calculateTakePrice((address,uint8,uint256,uint256,uint256,uint256[2],address,address,uint256,bytes))":"edf51fdd","genesis()":"a7f0b3de","getATokenAddressFor(address)":"15f14824","getAllAaveAssetPrices()":"78f34416","getAllAssetsPrices()":"a935310f","getAllForUser(address)":"e10e93b9","getEthSignedMessageHash(bytes32)":"fa540801","getPosition(bytes32)":"1928b3cb","getPriceOfAaveAsset(address)":"0f0a4ab1","getPriceOfAsset(address)":"0b13a88d","liquidatePosition(bytes32)":"eaf7762c","profitTake(address)":"ea2b5b43","recoverSigner(bytes32,bytes)":"97aba7f9","splitSignature(bytes)":"a7bb5803","takePosition((address,uint8,uint256,uint256,uint256,uint256[2],address,address,uint256,bytes))":"d286cc52","updateBucketCapacity()":"c4e8e0de","verifyLPsig((address,uint8,uint256,uint256,uint256,uint256[2],address,address,uint256,bytes))":"e64a8fc8"},"id":48}