{"abi":[{"type":"function","name":"getEthSignedMessageHash","inputs":[{"name":"_messageHash","type":"bytes32","internalType":"bytes32"}],"outputs":[{"name":"","type":"bytes32","internalType":"bytes32"}],"stateMutability":"pure"},{"type":"function","name":"recoverSigner","inputs":[{"name":"_ethSignedMessageHash","type":"bytes32","internalType":"bytes32"},{"name":"_signature","type":"bytes","internalType":"bytes"}],"outputs":[{"name":"","type":"address","internalType":"address"}],"stateMutability":"pure"},{"type":"function","name":"splitSignature","inputs":[{"name":"sig","type":"bytes","internalType":"bytes"}],"outputs":[{"name":"r","type":"bytes32","internalType":"bytes32"},{"name":"s","type":"bytes32","internalType":"bytes32"},{"name":"v","type":"uint8","internalType":"uint8"}],"stateMutability":"pure"}],"bytecode":{"object":"0x608060405234801561001057600080fd5b50610383806100206000396000f3fe608060405234801561001057600080fd5b50600436106100415760003560e01c806397aba7f914610046578063a7bb580314610076578063fa540801146100a7575b600080fd5b6100596100543660046102b0565b610116565b6040516001600160a01b0390911681526020015b60405180910390f35b6100896100843660046102f7565b610195565b60408051938452602084019290925260ff169082015260600161006d565b6101086100b5366004610334565b6040517f19457468657265756d205369676e6564204d6573736167653a0a3332000000006020820152603c8101829052600090605c01604051602081830303815290604052805190602001209050919050565b60405190815260200161006d565b60008060008061012585610195565b6040805160008152602081018083528b905260ff8316918101919091526060810184905260808101839052929550909350915060019060a0016020604051602081039080840390855afa158015610180573d6000803e3d6000fd5b5050604051601f190151979650505050505050565b600080600083516041146101ef5760405162461bcd60e51b815260206004820152601860248201527f696e76616c6964207369676e6174757265206c656e6774680000000000000000604482015260640160405180910390fd5b50505060208101516040820151606090920151909260009190911a90565b634e487b7160e01b600052604160045260246000fd5b600082601f83011261023457600080fd5b813567ffffffffffffffff8082111561024f5761024f61020d565b604051601f8301601f19908116603f011681019082821181831017156102775761027761020d565b8160405283815286602085880101111561029057600080fd5b836020870160208301376000602085830101528094505050505092915050565b600080604083850312156102c357600080fd5b82359150602083013567ffffffffffffffff8111156102e157600080fd5b6102ed85828601610223565b9150509250929050565b60006020828403121561030957600080fd5b813567ffffffffffffffff81111561032057600080fd5b61032c84828501610223565b949350505050565b60006020828403121561034657600080fd5b503591905056fea2646970667358221220ff57f1f8c8930dbf0ff3e84c99bdda32117e20ab8a9ede8037f38fd3e690e7c564736f6c63430008140033","linkReferences":{}},"methodIdentifiers":{"getEthSignedMessageHash(bytes32)":"fa540801","recoverSigner(bytes32,bytes)":"97aba7f9","splitSignature(bytes)":"a7bb5803"},"id":51}